:020000001628C0
:0E0006008312031321088A00200882000800DC
:1000140003208A110A128000840AA00A0319A10A83
:08002400F003031D0A28080087
:10002C00831603138601831286018030860002300A
:10003C00FB00C730FC008830FD00FD0B2328FC0BB7
:10004C002328FB0B23280000C0308600B630FC00B0
:10005C00D030FD00FD0B3028FC0B30280000403068
:10006C0086000230FB00C730FC008830FD00FD0B21
:10007C003D28FC0B3D28FB0B3D2800006030860022
:10008C00B630FC00D030FD00FD0B4A28FC0B4A2892
:10009C000000203086000230FB00C730FC008830A6
:1000AC00FD00FD0B5728FC0B5728FB0B57280000B5
:1000BC0030308600B630FC00D030FD00FD0B6428DB
:1000CC00FC0B64280000103086000230FB00C730A7
:1000DC00FC008830FD00FD0B7128FC0B7128FB0B1C
:1000EC007128000018308600B630FC00D030FD00BE
:1000FC00FD0B7E28FC0B7E280000083086000230A9
:10010C00FB00C730FC008830FD00FD0B8B28FC0B7E
:10011C008B28FB0B8B2800000C308600B630FC00C3
:10012C00D030FD00FD0B9828FC0B98280000043003
:10013C0086000230FB00C730FC008830FD00FD0B50
:10014C00A528FC0BA528FB0BA52800000630860073
:10015C00B630FC00D030FD00FD0BB228FC0BB228F1
:10016C000000023086000230FB00C730FC008830F3
:10017C00FD00FD0BBF28FC0BBF28FB0BBF280000AC
:10018C0003308600B630FC00D030FD00FD0BCC28CF
:10019C00FC0BCC280000013086000230FB00C7307D
:1001AC00FC008830FD00FD0BD928FC0BD928FB0B7B
:1001BC00D928000003308600B630FC00D030FD009A
:1001CC00FD0BE628FC0BE62800000230860002300E
:1001DC00FB00C730FC008830FD00FD0BF328FC0B46
:1001EC00F328FB0BF328000006308600B630FC0029
:1001FC00D030FD00FD0B0029FC0B00290000043061
:10020C0086000230FB00C730FC008830FD00FD0B7F
:10021C000D29FC0B0D29FB0B0D2900000C30860061
:10022C00B630FC00D030FD00FD0B1A29FC0B1A294E
:10023C000000083086000230FB00C730FC0088301C
:10024C00FD00FD0B2729FC0B2729FB0B27290000A0
:10025C0018308600B630FC00D030FD00FD0B342980
:10026C00FC0B34290000103086000230FB00C73034
:10027C00FC008830FD00FD0B4129FC0B4129FB0BD8
:10028C004129000030308600B630FC00D030FD0033
:10029C00FD0B4E29FC0B4E2900002030860002304D
:1002AC00FB00C730FC008830FD00FD0B5B29FC0B0C
:1002BC005B29FB0B5B29000060308600B630FC002C
:1002CC00D030FD00FD0B6829FC0B68290000403084
:1002DC0086000230FB00C730FC008830FD00FD0BAF
:1002EC007529FC0B7529FB0B75290000C0308600A5
:1002FC00B630FC00D030FD00FD0B8229FC0B8229AE
:06030C0000001B288829F7
:02400E004A2F37
:00000001FF
