:020000001628C0
:0E0006008312031321088A00200882000800DC
:1000140003208A110A128000840AA00A0319A10A83
:08002400F003031D0A28080087
:10002C008316031387010630831287008316880119
:10003C00831288017C308316920005308312920063
:10004C000C3097003C309D00A03088009630950015
:10005C0096309B000A30FB002230FC00A130FD00E2
:10006C00FD0B3628FC0B3628FB0B3628503088004D
:10007C009630950096309B000530FB009130FC00CB
:10008C00CF30FD00FD0B4828FC0B4828FB0B482803
:10009C0000000000A03088009630950096309B0040
:1000AC000A30FB002230FC00A130FD00FD0B5C2867
:1000BC00FC0B5C28FB0B5C28F0308800963095001C
:1000CC0096309B000B30FC006230FD00FD0B6C2861
:1000DC00FC0B6C2800009030880096309500963010
:1000EC009B000530FB000F30FC00F130FD00FD0BD8
:1000FC007D28FC0B7D28FB0B7D286030880096301A
:10010C00950096309B000530FB000F30FC00F13061
:10011C00FD00FD0B8F28FC0B8F28FB0B8F2850301C
:10012C0088009630950096309B000A30FB002230F8
:10013C00FC00A130FD00FD0BA128FC0BA128FB0B42
:10014C00A128A03088009630950096309B000A308C
:10015C00FB002230FC00A130FD00FD0BB328FC0B92
:0A016C00B328FB0BB3282A28BA2899
:02400E004A2F37
:00000001FF
