:020000001628C0
:0E0006008312031321088A00200882000800DC
:1000140003208A110A128000840AA00A0319A10A83
:08002400F003031D0A28080087
:10002C0083160313860183128601C03086000430C8
:10003C00FB000C30FC003330FD00FD0B2328FC0BC7
:10004C002328FB0B232800000000603086000430BE
:10005C00FB000C30FC003330FD00FD0B3328FC0B97
:10006C003328FB0B332800000000303086000430AE
:10007C00FB000C30FC003330FD00FD0B4328FC0B67
:10008C004328FB0B43280000000018308600043086
:10009C00FB000C30FC003330FD00FD0B5328FC0B37
:1000AC005328FB0B5328000000000C308600043052
:1000BC00FB000C30FC003330FD00FD0B6328FC0B07
:1000CC006328FB0B63280000000006308600043018
:1000DC00FB000C30FC003330FD00FD0B7328FC0BD7
:1000EC007328FB0B732800000000033086000430DB
:1000FC00FB000C30FC003330FD00FD0B8328FC0BA7
:10010C008328FB0B8328000000000130860004309C
:10011C00FB000C30FC003330FD00FD0B9328FC0B76
:10012C009328FB0B93280000000086010430FB0091
:10013C000C30FC003330FD00FD0BA228FC0BA22878
:0C014C00FB0BA228000000001B28AB28C1
:02400E004A2F37
:00000001FF
