:020000001628C0
:0E0006008312031321088A00200882000800DC
:1000140003208A110A128000840AA00A0319A10A83
:08002400F003031D0A28080087
:10002C00831603138701FF30831287008316880120
:10003C0083128801A03088003330FB00BB30FC00F9
:10004C00DF30FD00FD0B2828FC0B2828FB0B282893
:10005C000000000088011530FB004B30FC00BE3066
:10006C00FD00FD0B3728FC0B3728FB0B3728000055
:10007C00503088003330FB00BB30FC00DF30FD001B
:10008C00FD0B4628FC0B4628FB0B46280000000005
:10009C0088013D30FB00E130FC003F30FD00FD0BE2
:1000AC005528FC0B5528FB0B552800000000A030F0
:1000BC0088003330FB00BB30FC00DF30FD00FD0B53
:1000CC006528FC0B6528FB0B6528000000008801E7
:1000DC001530FB004B30FC00BE30FD00FD0B7428CE
:1000EC00FC0B7428FB0B7428000050308800333054
:1000FC00FB00BB30FC00DF30FD00FD0B8328FC0B4C
:10010C008328FB0B83280000000088011530FB00BE
:10011C004B30FC00BE30FD00FD0B9228FC0B9228EE
:10012C00FB0B92280000A03088003330FB00BB3062
:10013C00FC00DF30FD00FD0BA128FC0BA128FB0B04
:10014C00A1280000000088011530FB004B30FC009A
:10015C00BE30FD00FD0BB028FC0BB028FB0BB0280B
:10016C000000503088003330FB00BB30FC00DF3027
:10017C00FD00FD0BBF28FC0BBF28FB0BBF280000AC
:10018C00000088011530FB004B30FC00BE30FD0038
:10019C00FD0BCE28FC0BCE28FB0BCE280000202814
:0201AC00D62853
:02400E004A2F37
:00000001FF
