:020000001628C0
:0E0006008312031321088A00200882000800DC
:1000140003208A110A128000840AA00A0319A10A83
:08002400F003031D0A28080087
:10002C008316031386018312860186010530FB00BB
:10003C000F30FC00F130FD00FD0B2228FC0B2228B8
:10004C00FB0B2228FF3086000530FB000F30FC0034
:10005C00F130FD00FD0B3028FC0B3028FB0B302859
:10006C0086010530FB000F30FC00F130FD00FD0B6C
:10007C003D28FC0B3D28FB0B3D28803086000530CD
:10008C00FB000F30FC00F130FD00FD0B4B28FC0B8E
:10009C004B28FB0B4B28403086000530FB000F3003
:1000AC00FC00F130FD00FD0B5928FC0B5928FB0B13
:1000BC005928203086000530FB000F30FC00F13051
:1000CC00FD00FD0B6728FC0B6728FB0B6728103025
:1000DC0086000530FB000F30FC00F130FD00FD0BFD
:1000EC007528FC0B7528FB0B75280830860005302D
:1000FC00FB000F30FC00F130FD00FD0B8328FC0BE6
:10010C008328FB0B8328043086000530FB000F305E
:10011C00FC00F130FD00FD0B9128FC0B9128FB0B32
:10012C009128023086000530FB000F30FC00F130C6
:10013C00FD00FD0B9F28FC0B9F28FB0B9F2801301B
:10014C0086000530FB000F30FC00F130FD00FD0B8C
:10015C00AD28FC0BAD28FB0BAD280130860005301B
:10016C00FB000F30FC00F130FD00FD0BBB28FC0B3D
:10017C00BB28FB0BBB28023086000530FB000F3080
:10018C00FC00F130FD00FD0BC928FC0BC928FB0B52
:10019C00C928043086000530FB000F30FC00F1301C
:1001AC00FD00FD0BD728FC0BD728FB0BD7280830FC
:1001BC0086000530FB000F30FC00F130FD00FD0B1C
:1001CC00E528FC0BE528FB0BE528103086000530F4
:1001DC00FB000F30FC00F130FD00FD0BF328FC0B95
:1001EC00F328FB0BF328203086000530FB000F3082
:1001FC00FC00F130FD00FD0B0129FC0B0129FB0B70
:10020C000129403086000530FB000F30FC00F13036
:10021C00FD00FD0B0F29FC0B0F29FB0B0F29803068
:10022C0086000530FB000F30FC00F130FD00FD0BAB
:10023C001D29FC0B1D29FB0B1D29C0308600053028
:10024C00FB000F30FC00F130FD00FD0B2B29FC0BEB
:10025C002B29FB0B2B29E03086000530FB000F30DF
:10026C00FC00F130FD00FD0B3929FC0B3929FB0B8F
:10027C003929F03086000530FB000F30FC00F130DE
:10028C00FD00FD0B4729FC0B4729FB0B4729F830D8
:10029C0086000530FB000F30FC00F130FD00FD0B3B
:1002AC005529FC0B5529FB0B5529FC3086000530D4
:1002BC00FB000F30FC00F130FD00FD0B6329FC0B43
:1002CC006329FB0B6329FE3086000530FB000F30E1
:1002DC00FC00F130FD00FD0B7129FC0B7129FB0BAF
:1002EC007129FF3086000530FB000F30FC00F13027
:1002FC00FD00FD0B7F29FC0B7F29FB0B7F29860161
:10030C000530FB000F30FC00F130FD00FD0B8C299B
:10031C00FC0B8C29FB0B8C29803086000530FB00F4
:10032C000F30FC00F130FD00FD0B9A29FC0B9A29D3
:10033C00FB0B9A29C03086000530FB000F30FC0007
:10034C00F130FD00FD0BA829FC0BA829FB0BA829FB
:10035C00E03086000530FB000F30FC00F130FD0072
:10036C00FD0BB629FC0BB629FB0BB629F030860029
:10037C000530FB000F30FC00F130FD00FD0BC429F3
:10038C00FC0BC429FB0BC429F83086000530FB009C
:10039C000F30FC00F130FD00FD0BD229FC0BD229F3
:1003AC00FB0BD229FC3086000530FB000F30FC0023
:1003BC00F130FD00FD0BE029FC0BE029FB0BE029E3
:1003CC00FE3086000530FB000F30FC00F130FD00E4
:1003DC00FD0BEE29FC0BEE29FB0BEE29FF30860002
:1003EC000530FB000F30FC00F130FD00FD0BFC294B
:1003FC00FC0BFC29FB0BFC297F3086000530FB0035
:10040C000F30FC00F130FD00FD0B0A2AFC0B0A2A10
:10041C00FB0B0A2A3F3086000530FB000F30FC0036
:10042C00F130FD00FD0B182AFC0B182AFB0B182AC7
:10043C001F3086000530FB000F30FC00F130FD0052
:10044C00FD0B262AFC0B262AFB0B262A0F308600D6
:10045C000530FB000F30FC00F130FD00FD0B342AA1
:10046C00FC0B342AFB0B342A073086000530FB00CA
:10047C000F30FC00F130FD00FD0B422AFC0B422A30
:10048C00FB0B422A033086000530FB000F30FC00CA
:10049C00F130FD00FD0B502AFC0B502AFB0B502AAF
:1004AC00013086000530FB000F30FC00F130FD0000
:1004BC00FD0B5E2AFC0B5E2AFB0B5E2A86010530C7
:1004CC00FB000F30FC00F130FD00FD0B6B2AFC0B28
:1004DC006B2AFB0B6B2A813086000530FB000F303A
:1004EC00FC00F130FD00FD0B792AFC0B792AFB0B8B
:1004FC00792A423086000530FB000F30FC00F130C9
:10050C00FD00FD0B872AFC0B872AFB0B872A243066
:10051C0086000530FB000F30FC00F130FD00FD0BB8
:10052C00952AFC0B952AFB0B952A18308600053072
:10053C00FB000F30FC00F130FD00FD0BA32AFC0B7F
:10054C00A32AFB0BA32A243086000530FB000F30B6
:10055C00FC00F130FD00FD0BB12AFC0BB12AFB0BAA
:10056C00B12A423086000530FB000F30FC00F13020
:10057C00FD00FD0BBF2AFC0BBF2AFB0BBF2A8130F1
:10058C0086000530FB000F30FC00F130FD00FD0B48
:10059C00CD2AFC0BCD2AFB0BCD2A86010530FB00A6
:1005AC000F30FC00F130FD00FD0BDA2AFC0BDA2ACF
:1005BC00FB0BDA2A813086000530FB000F30FC0083
:1005CC00F130FD00FD0BE82AFC0BE82AFB0BE82AB6
:1005DC00C33086000530FB000F30FC00F130FD000D
:1005EC00FD0BF62AFC0BF62AFB0BF62AE7308600ED
:1005FC000530FB000F30FC00F130FD00FD0B042B2F
:10060C00FC0B042BFB0B042BFF3086000530FB008E
:10061C000F30FC00F130FD00FD0B122BFC0B122BEC
:10062C00FB0B122BE73086000530FB000F30FC0073
:10063C00F130FD00FD0B202BFC0B202BFB0B202B9A
:10064C00C33086000530FB000F30FC00F130FD009C
:10065C00FD0B2E2BFC0B2E2BFB0B2E2B8130860037
:10066C000530FB000F30FC00F130FD00FD0B3C2B86
:10067C00FC0B3C2BFB0B3C2B86010530FB000F309D
:10068C00FC00F130FD00FD0B492BFC0B492BFB0B47
:10069C00492B813086000530FB000F30FC00F13017
:1006AC00FD00FD0B572BFC0B572BFB0B572BC330B3
:1006BC0086000530FB000F30FC00F130FD00FD0B17
:1006CC00652BFC0B652BFB0B652BE730860005308F
:1006DC00FB000F30FC00F130FD00FD0B732BFC0B0D
:1006EC00732BFB0B732BFF3086000530FB000F3098
:1006FC00FC00F130FD00FD0B812BFC0B812BFB0B67
:10070C00812B7E3086000530FB000F30FC00F13071
:10071C00FD00FD0B8F2BFC0B8F2BFB0B8F2B3C3021
:10072C0086000530FB000F30FC00F130FD00FD0BA6
:10073C009D2BFC0B9D2BFB0B9D2B18308600053045
:10074C00FB000F30FC00F130FD00FD0BAB2BFC0B64
:10075C00AB2BFB0BAB2B86010530FB000F30FC00E9
:10076C00F130FD00FD0BB82BFC0BB82BFB0BB82BA1
:10077C00FF3086000530FB000F30FC00F130FD002F
:10078C00FD0BC62BFC0BC62BFB0BC62B7E30860041
:10079C000530FB000F30FC00F130FD00FD0BD42BBD
:1007AC00FC0BD42BFB0BD42BBD3086000530FB008F
:1007BC000F30FC00F130FD00FD0BE22BFC0BE22BAB
:1007CC00FB0BE22BDB3086000530FB000F30FC000E
:1007DC00F130FD00FD0BF02BFC0BF02BFB0BF02B89
:1007EC00E73086000530FB000F30FC00F130FD00D7
:1007FC00FD0BFE2BFC0BFE2BFB0BFE2BDB308600CC
:10080C000530FB000F30FC00F130FD00FD0B0C2C13
:10081C00FC0B0C2CFB0B0C2CBD3086000530FB00AC
:10082C000F30FC00F130FD00FD0B1A2CFC0B1A2CC8
:10083C00FB0B1A2C7E3086000530FB000F30FC00C1
:10084C00F130FD00FD0B282CFC0B282CFB0B282C6D
:10085C00AA3086000530FB000F30FC00F130FD00A3
:10086C00FD0B362CFC0B362CFB0B362C5530860036
:10087C000530FB000F30FC00F130FD00FD0B442C6B
:10088C00FC0B442CFB0B442CAA3086000530FB00DF
:10089C000F30FC00F130FD00FD0B522CFC0B522CE8
:1008AC00FB0B522C553086000530FB000F30FC0042
:1008BC00F130FD00FD0B602CFC0B602CFB0B602C55
:1008CC0086010530FB000F30FC00F130FD00FD0B04
:1008DC006D2CFC0B6D2CFB0B6D2CFF30860005304A
:1008EC00FB000F30FC00F130FD00FD0B7B2CFC0BF2
:1008FC007B2CFB0B7B2C86010530FB000F30FC00A6
:10090C00F130FD00FD0B882CFC0B882CFB0B882C8C
:10091C00FF3086000530FB000F30FC00F130FD008D
:10092C00FD0B962CFC0B962CFB0B962C86010530A4
:10093C00FB000F30FC00F130FD00FD0BA32CFC0B79
:0A094C00A32CFB0BA32C1B28AA2CE4
:02400E004A2F37
:00000001FF
