:020000001628C0
:0E0006008312031321088A00200882000800DC
:1000140003208A110A128000840AA00A0319A10A83
:08002400F003031D0A28080087
:10002C00FF30831603138700831287018316860122
:10003C00831286018316880183128801FF308600A3
:10004C00EA30FC00C330FD00FD0B2A28FC0B2A28EB
:10005C008601EA30FC00C330FD00FD0B3328FC0B9D
:10006C003328FF308600EA30FC00C330FD00FD0B66
:10007C003D28FC0B3D288601EA30FC00C330FD0016
:10008C00FD0B4628FC0B4628FF308600EA30FC00AE
:10009C00C330FD00FD0B5028FC0B50288601EA30C4
:1000AC00FC00C330FD00FD0B5928FC0B5928FF3018
:1000BC008600EA30FC00C330FD00FD0B6328FC0B0E
:1000CC0063288601EA30FC00C330FD00FD0B6C2870
:1000DC00FC0B6C280708013A031D9B28AA308600EC
:1000EC000230FB008630FC009930FD00FD0B7C28B3
:1000FC00FC0B7C28FB0B7C28553086000230FB0067
:10010C008630FC009930FD00FD0B8A28FC0B8A28F8
:10011C00FB0B8A2886010330FC009730FD00FD0B99
:10012C009528FC0B9528000000000708023A031DD7
:10013C00162A803086000230FB00C730FC00883065
:10014C00FD00FD0BA728FC0BA728FB0BA728000024
:10015C00C0308600B630FC00D030FD00FD0BB4285A
:10016C00FC0BB4280000403086000230FB00C73086
:10017C00FC008830FD00FD0BC128FC0BC128FB0BDB
:10018C00C128000060308600B630FC00D030FD0085
:10019C00FD0BCE28FC0BCE28000020308600023050
:1001AC00FB00C730FC008830FD00FD0BDB28FC0B8E
:1001BC00DB28FB0BDB28000030308600B630FC005F
:1001CC00D030FD00FD0BE828FC0BE82800001030B7
:1001DC0086000230FB00C730FC008830FD00FD0BB0
:1001EC00F528FC0BF528FB0BF528000018308600D1
:1001FC00B630FC00D030FD00FD0B0229FC0B0229AF
:10020C000000083086000230FB00C730FC0088304C
:10021C00FD00FD0B0F29FC0B0F29FB0B0F29000018
:10022C000C308600B630FC00D030FD00FD0B1C29D4
:10023C00FC0B1C290000043086000230FB00C73088
:10024C00FC008830FD00FD0B2929FC0B2929FB0B38
:10025C002929000006308600B630FC00D030FD00A5
:10026C00FD0B3629FC0B36290000023086000230CB
:10027C00FB00C730FC008830FD00FD0B4329FC0B54
:10028C004329FB0B4329000003308600B630FC00E9
:10029C00D030FD00FD0B5029FC0B50290000013023
:1002AC0086000230FB00C730FC008830FD00FD0BDF
:1002BC005D29FC0B5D29FB0B5D29000003308600DA
:1002CC00B630FC00D030FD00FD0B6A29FC0B6A290E
:1002DC000000023086000230FB00C730FC00883082
:1002EC00FD00FD0B7729FC0B7729FB0B7729000010
:1002FC0006308600B630FC00D030FD00FD0B8429A2
:10030C00FC0B84290000043086000230FB00C7304F
:10031C00FC008830FD00FD0B9129FC0B9129FB0B97
:10032C00912900000C308600B630FC00D030FD0066
:10033C00FD0B9E29FC0B9E29000008308600023024
:10034C00FB00C730FC008830FD00FD0BAB29FC0B1B
:10035C00AB29FB0BAB29000018308600B630FC0033
:10036C00D030FD00FD0BB829FC0BB8290000103073
:10037C0086000230FB00C730FC008830FD00FD0B0E
:10038C00C529FC0BC529FB0BC529000030308600A4
:10039C00B630FC00D030FD00FD0BD229FC0BD2296D
:1003AC000000203086000230FB00C730FC00883093
:1003BC00FD00FD0BDF29FC0BDF29FB0BDF29000007
:1003CC0060308600B630FC00D030FD00FD0BEC290F
:1003DC00FC0BEC290000403086000230FB00C730DB
:1003EC00FC008830FD00FD0BF929FC0BF929FB0BF7
:1003FC00F9290000C0308600B630FC00D030FD007A
:10040C00FD0B062AFC0B062A000086010330FC00BB
:10041C009730FD00FD0B102AFC0B102A0000000089
:10042C000708043A031DB12A50308600EA30FC005C
:10043C00C330FD00FD0B202AFC0B202A88308600DF
:10044C00EA30FC00C330FD00FD0B2A2AFC0B2A2AE3
:10045C0044308600EA30FC00C330FD00FD0B342A2A
:10046C00FC0B342A22308600EA30FC00C330FD003D
:10047C00FD0B3E2AFC0B3E2A11308600EA30FC00B4
:10048C00C330FD00FD0B482AFC0B482A0A308600BD
:10049C00EA30FC00C330FD00FD0B522AFC0B522A43
:1004AC0004308600EA30FC00C330FD00FD0B5C2AF2
:1004BC00FC0B5C2A0A308600EA30FC00C330FD00DD
:1004CC00FD0B662AFC0B662A11308600EA30FC0014
:1004DC00C330FD00FD0B702AFC0B702A2230860005
:1004EC00EA30FC00C330FD00FD0B7A2AFC0B7A2AA3
:1004FC0044308600EA30FC00C330FD00FD0B842A3A
:10050C00FC0B842A88308600EA30FC00C330FD00E6
:10051C00FD0B8E2AFC0B8E2A50308600EA30FC0034
:10052C00C330FD00FD0B982AFC0B982A2030860066
:10053C00EA30FC00C330FD00FD0BA22AFC0BA22A02
:10054C0086010330FC009730FD00FD0BAB2AFC0B41
:10055C00AB2A000000000708083A031DD82CFF3016
:10056C0086000230FB008630FC009930FD00FD0B4C
:10057C00BD2AFC0BBD2AFB0BBD2A86010230FB00F9
:10058C000430FC00BA30FD00FD0BCA2AFC0BCA2A51
:10059C00FB0BCA2A0000FF3088000230FB008630BB
:1005AC00FC009930FD00FD0BD92AFC0BD92AFB0B62
:1005BC00D92A88010330FB000830FC007730FD009D
:1005CC00FD0BE62AFC0BE62AFB0BE62A0130860023
:1005DC0088010330FB000830FC007730FD00FD0B78
:1005EC00F52AFC0BF52AFB0BF52A86010230880054
:1005FC000330FB000830FC007730FD00FD0B042BB2
:10060C00FC0B042BFB0B042B8801043086000330FD
:10061C00FB000830FC007730FD00FD0B132BFC0BAE
:10062C00132BFB0B132B8601083088000330FB00C7
:10063C000830FC007730FD00FD0B222BFC0B222B2D
:10064C00FB0B222B8801103086000330FB00083096
:10065C00FC007730FD00FD0B312BFC0B312BFB0B21
:10066C00312B8601203088000330FB000830FC0061
:10067C007730FD00FD0B402BFC0B402BFB0B402B74
:10068C008801403086000330FB000830FC007730D6
:10069C00FD00FD0B4F2BFC0B4F2BFB0B4F2B860147
:1006AC00803088000330FB000830FC007730FD0000
:1006BC00FD0B5E2BFC0B5E2BFB0B5E2B8801803045
:1006CC0086000330FB000830FC007730FD00FD0B8A
:1006DC006D2BFC0B6D2BFB0B6D2B860140308800BA
:1006EC000330FB000830FC007730FD00FD0B7C2B49
:1006FC00FC0B7C2BFB0B7C2B880120308600033001
:10070C00FB000830FC007730FD00FD0B8B2BFC0B45
:10071C008B2BFB0B8B2B8601103088000330FB00DE
:10072C000830FC007730FD00FD0B9A2BFC0B9A2B4C
:10073C00FB0B9A2B8801083086000330FB00083035
:10074C00FC007730FD00FD0BA92BFC0BA92BFB0B40
:10075C00A92B8601043088000330FB000830FC0014
:10076C007730FD00FD0BB82BFC0BB82BFB0BB82B1B
:10077C008801023086000330FB000830FC00773023
:10078C00FD00FD0BC72BFC0BC72BFB0BC72B8601EE
:10079C00013088000330FB000830FC007730FD008E
:1007AC00FD0BD62BFC0BD62BFB0BD62B013086006E
:1007BC0088010330FB000830FC007730FD00FD0B96
:1007CC00E52BFC0BE52BFB0BE52B8601023088009F
:1007DC000330FB000830FC007730FD00FD0BF42BE0
:1007EC00FC0BF42BFB0BF42B88010530860003303B
:1007FC00FB000830FC007730FD00FD0B032CFC0BDC
:10080C00032CFB0B032C86010A3088000330FB0001
:10081C000830FC007730FD00FD0B122CFC0B122C69
:10082C00FB0B122C8801153086000330FB000830BE
:10083C00FC007730FD00FD0B212CFC0B212CFB0B5D
:10084C00212C86012A3088000330FB000830FC0084
:10085C007730FD00FD0B302CFC0B302CFB0B302CBF
:10086C008801553086000330FB000830FC007730DF
:10087C00FD00FD0B3F2CFC0B3F2CFB0B3F2C860192
:10088C00AA3088000330FB000830FC007730FD00F4
:10089C00FD0B4E2CFC0B4E2CFB0B4E2C880195307B
:1008AC0086000330FB000830FC007730FD00FD0BA8
:1008BC005D2CFC0B5D2CFB0B5D2C8601D530880070
:1008CC000330FB000830FC007730FD00FD0B6C2C76
:1008DC00FC0B6C2CFB0B6C2C8801EA308600033073
:1008EC00FB000830FC007730FD00FD0B7B2CFC0B73
:1008FC007B2CFB0B7B2C8601F53088000330FB0036
:10090C000830FC007730FD00FD0B8A2CFC0B8A2C88
:10091C00FB0B8A2C8801FA3086000330FB00083070
:10092C00FC007730FD00FD0B992CFC0B992CFB0B7C
:10093C00992C8601FD3088000330FB000830FC0048
:10094C007730FD00FD0BA82CFC0BA82CFB0BA82C66
:10095C008801FE3086000330FB000830FC00773045
:10096C00FD00FD0BB72CFC0BB72CFB0BB72C860139
:10097C00FF3088000330FB000830FC007730FD00AE
:10098C00FD0BC62CFC0BC62CFB0BC62C8601880160
:10099C000330FC009730FD00FD0BD22CFC0BD22C4D
:1009AC00000000000708103A031DE52D01308600F9
:1009BC00803088000230FB000430FC00BA30FD00AF
:1009CC00FD0BE62CFC0BE62CFB0BE62C000003309D
:1009DC008600C03088000230FB000430FC00BA30C6
:1009EC00FD00FD0BF72CFC0BF72CFB0BF72C000080
:1009FC0007308600E03088000230FB000430FC0039
:100A0C00BA30FD00FD0B082DFC0B082DFB0B082D3F
:100A1C0000000F308600F03088000230FB000430FC
:100A2C00FC00BA30FD00FD0B192DFC0B192DFB0B36
:100A3C00192D00000E308600703088000230FB004B
:100A4C000430FC00BA30FD00FD0B2A2DFC0B2A2DC6
:100A5C00FB0B2A2D00000C30860030308800023051
:100A6C00FB000430FC00BA30FD00FD0B3B2DFC0BF1
:100A7C003B2DFB0B3B2D000008308600103088000E
:100A8C000230FB000430FC00BA30FD00FD0B4C2D95
:100A9C00FC0B4C2DFB0B4C2D00001030860008304D
:100AAC0088000230FB000430FC00BA30FD00FD0B66
:100ABC005D2DFC0B5D2DFB0B5D2D00003030860099
:100ACC000C3088000230FB000430FC00BA30FD0012
:100ADC00FD0B6E2DFC0B6E2DFB0B6E2D0000703084
:100AEC0086000E3088000230FB000430FC00BA3067
:100AFC00FD00FD0B7F2DFC0B7F2DFB0B7F2D0000D4
:100B0C00F03086000F3088000230FB000430FC000F
:100B1C00BA30FD00FD0B902DFC0B902DFB0B902D96
:100B2C000000E0308600073088000230FB00043003
:100B3C00FC00BA30FD00FD0BA12DFC0BA12DFB0B15
:100B4C00A12D0000C0308600033088000230FB006D
:100B5C000430FC00BA30FD00FD0BB22DFC0BB22DA5
:100B6C00FB0BB22D00008030860001308800023073
:100B7C00FB000430FC00BA30FD00FD0BC32DFC0B58
:100B8C00C32DFB0BC32D0000860188010230FB0036
:100B9C000430FC00BA30FD00FD0BD22DFC0BD22D25
:100BAC00FB0BD22D0000860188010330FC0097302E
:100BBC00FD00FD0BDF2DFC0BDF2D000000000708F6
:100BCC00203A031DF42E013086008030880002305C
:100BDC00FB000430FC00BA30FD00FD0BF32DFC0BC8
:100BEC00F32DFB0BF32D0000023086004030880003
:100BFC000230FB000430FC00BA30FD00FD0B042E6B
:100C0C00FC0B042EFB0B042E00000430860020305D
:100C1C0088000230FB000430FC00BA30FD00FD0BF4
:100C2C00152EFC0B152EFB0B152E00000830860024
:100C3C00103088000230FB000430FC00BA30FD009C
:100C4C00FD0B262EFC0B262EFB0B262E0000103047
:100C5C008600083088000230FB000430FC00BA30FB
:100C6C00FD00FD0B372EFC0B372EFB0B372E000037
:100C7C0020308600043088000230FB000430FC0079
:100C8C00BA30FD00FD0B482EFC0B482EFB0B482EFA
:100C9C00000040308600023088000230FB00043037
:100CAC00FC00BA30FD00FD0B592EFC0B592EFB0B32
:100CBC00592E000080308600013088000230FB0085
:100CCC000430FC00BA30FD00FD0B6A2EFC0B6A2EC2
:100CDC00FB0B6A2E00004030860002308800023088
:100CEC00FB000430FC00BA30FD00FD0B7B2EFC0B2E
:100CFC007B2EFB0B7B2E00002030860004308800FE
:100D0C000230FB000430FC00BA30FD00FD0B8C2ED1
:100D1C00FC0B8C2EFB0B8C2E000010308600083048
:100D2C0088000230FB000430FC00BA30FD00FD0BE3
:100D3C009D2EFC0B9D2EFB0B9D2E0000083086007B
:100D4C00103088000230FB000430FC00BA30FD008B
:100D5C00FD0BAE2EFC0BAE2EFB0BAE2E00000430AA
:100D6C008600203088000230FB000430FC00BA30D2
:100D7C00FD00FD0BBF2EFC0BBF2EFB0BBF2E00008E
:100D8C0002308600403088000230FB000430FC004A
:100D9C00BA30FD00FD0BD02EFC0BD02EFB0BD02E51
:100DAC00000001308600803088000230FB000430E7
:100DBC00FC00BA30FD00FD0BE12EFC0BE12EFB0B11
:100DCC00E12E0000860188010330FC009730FD0005
:100DDC00FD0BEE2EFC0BEE2E000000000708403A37
:100DEC00031DE42F803086000230FB000430FC0031
:100DFC00BA30FD00FD0B002FFC0B002FFB0B002F5E
:100E0C000000C03086000230FB000430FC00BA3019
:100E1C00FD00FD0B0F2FFC0B0F2FFB0B0F2F0000FA
:100E2C00E03086000230FB000430FC00BA30FD00DC
:100E3C00FD0B1E2FFC0B1E2FFB0B1E2F0000F0308A
:100E4C0086000230FB000430FC00BA30FD00FD0BC4
:100E5C002D2FFC0B2D2FFB0B2D2F0000F8308600B7
:100E6C000230FB000430FC00BA30FD00FD0B3C2FBF
:100E7C00FC0B3C2FFB0B3C2F0000FC30860002309F
:100E8C00FB000430FC00BA30FD00FD0B4B2FFC0BBB
:100E9C004B2FFB0B4B2F0000FE3086000230FB006B
:100EAC000430FC00BA30FD00FD0B5A2FFC0B5A2FFE
:100EBC00FB0B5A2F0000FF3086000230FB00043081
:100ECC00FC00BA30FD00FD0B692FFC0B692FFB0BEE
:100EDC00692F00007F3086000230FB000430FC00DC
:100EEC00BA30FD00FD0B782FFC0B782FFB0B782F05
:100EFC0000003F3086000230FB000430FC00BA30AA
:100F0C00FD00FD0B872FFC0B872FFB0B872F0000A1
:100F1C001F3086000230FB000430FC00BA30FD00AC
:100F2C00FD0B962FFC0B962FFB0B962F00000F3012
:100F3C0086000230FB000430FC00BA30FD00FD0BD3
:100F4C00A52FFC0BA52FFB0BA52F0000073086004F
:100F5C000230FB000430FC00BA30FD00FD0BB42F56
:100F6C00FC0BB42FFB0BB42F0000033086000230B7
:100F7C00FB000430FC00BA30FD00FD0BC32FFC0B52
:100F8C00C32FFB0BC32F0000013086000230FB0087
:100F9C000430FC00BA30FD00FD0BD22FFC0BD22F1D
:100FAC00FB0BD22F000086010330FC009730FD00B4
:100FBC00FD0BDE2FFC0BDE2F000000007028E52F50
:02400E004A2F37
:00000001FF
