:020000001628C0
:0E0006008312031321088A00200882000800DC
:1000140003208A110A128000840AA00A0319A10A83
:08002400F003031D0A28080087
:10002C00FF30831603138700831287018316860122
:10003C0083128601FF308600B630FC00D030FD0004
:10004C00FD0B2628FC0B262800008601B630FC0090
:10005C00D030FD00FD0B3028FC0B30280000FF30A9
:10006C008600B630FC00D030FD00FD0B3B28FC0BAD
:10007C003B2800008601B630FC00D030FD00FD0BA3
:10008C004528FC0B45280000FF308600B630FC00EC
:10009C00D030FD00FD0B5028FC0B502800008601D1
:1000AC00B630FC00D030FD00FD0B5A28FC0B5A2852
:1000BC000000FF308600B630FC00D030FD00FD0B98
:1000CC006528FC0B652800008601B630FC00D0309A
:1000DC00FD00FD0B6F28FC0B6F2800000708013A90
:1000EC00031D7A28013086000708023A031D802878
:1000FC00023086000708043A031D86280430860067
:10010C000708083A031D8C28083086000708103AA7
:10011C00031D9228103086000708203A031D9828EA
:10012C00203086000708403A031D9E284030860088
:10013C000708803A031DA428803086007428A5285F
:02400E004A2F37
:00000001FF
