:020000001628C0
:0E0006008312031323088A00220882000800D8
:1000140003208A110A128000840AA20A0319A30A7F
:08002400F003031D0A28080087
:10002C0083120313A001A10183168601831286019A
:10003C008316880183128801FF3086000230FB0092
:10004C008630FC009930FD00FD0B2A28FC0B2A2879
:10005C00FB0B2A2886010230FB000430FC00BA306E
:10006C00FD00FD0B3728FC0B3728FB0B3728000055
:10007C00FF3088000230FB008630FC009930FD0018
:10008C00FD0B4628FC0B4628FB0B46288801033049
:10009C00FB000830FC007730FD00FD0B5328FC0BF7
:1000AC005328FB0B53280130860088010330FB00DA
:1000BC000830FC007730FD00FD0B6228FC0B622839
:1000CC00FB0B62288601023088000330FB000830ED
:1000DC00FC007730FD00FD0B7128FC0B7128FB0B2D
:1000EC0071288801043086000330FB000830FC00C6
:1000FC007730FD00FD0B8028FC0B8028FB0B802843
:10010C008601083088000330FB000830FC00773093
:10011C00FD00FD0B8F28FC0B8F28FB0B8F28880113
:10012C00103086000330FB000830FC007730FD00F7
:10013C00FD0B9E28FC0B9E28FB0B9E288601203075
:10014C0088000330FB000830FC007730FD00FD0B0D
:10015C00AD28FC0BAD28FB0BAD2888014030860088
:10016C000330FB000830FC007730FD00FD0BBC2891
:10017C00FC0BBC28FB0BBC288601803088000330AC
:10018C00FB000830FC007730FD00FD0BCB28FC0B8E
:10019C00CB28FB0BCB288801803086000330FB007A
:1001AC000830FC007730FD00FD0BDA28FC0BDA2858
:1001BC00FB0BDA288601403088000330FB00083046
:1001CC00FC007730FD00FD0BE928FC0BE928FB0B4C
:1001DC00E9288801203086000330FB000830FC0041
:1001EC007730FD00FD0BF828FC0BF828FB0BF828EA
:1001FC008601103088000330FB000830FC0077309B
:10020C00FD00FD0B0729FC0B0729FB0B07298801B7
:10021C00083086000330FB000830FC007730FD000E
:10022C00FD0B1629FC0B1629FB0B16298601043035
:10023C0088000330FB000830FC007730FD00FD0B1C
:10024C002529FC0B2529FB0B25298801023086006A
:10025C000330FB000830FC007730FD00FD0B342927
:10026C00FC0B3429FB0B3429860101308800033048
:10027C00FB000830FC007730FD00FD0B4329FC0B24
:10028C004329FB0B43290130860088010330FB0016
:10029C000830FC007730FD00FD0B5229FC0B522975
:1002AC00FB0B52298601023088000330FB0008301A
:1002BC00FC007730FD00FD0B6129FC0B6129FB0B69
:1002CC0061298801053086000330FB000830FC00F2
:1002DC007730FD00FD0B7029FC0B7029FB0B70298E
:1002EC0086010A3088000330FB000830FC007730B0
:1002FC00FD00FD0B7F29FC0B7F29FB0B7F2988015F
:10030C00153086000330FB000830FC007730FD0010
:10031C00FD0B8E29FC0B8E29FB0B8E2986012A30B6
:10032C0088000330FB000830FC007730FD00FD0B2B
:10033C009D29FC0B9D29FB0B9D29880155308600BE
:10034C000330FB000830FC007730FD00FD0BAC29BE
:10035C00FC0BAC29FB0BAC298601AA3088000330BE
:10036C00FB000830FC007730FD00FD0BBB29FC0BBB
:10037C00BB29FB0BBB298801953086000330FB00A1
:10038C000830FC007730FD00FD0BCA29FC0BCA2994
:10039C00FB0BCA298601D53088000330FB000830DE
:1003AC00FC007730FD00FD0BD929FC0BD929FB0B88
:1003BC00D9298801EA3086000330FB000830FC00A4
:1003CC007730FD00FD0BE829FC0BE829FB0BE82935
:1003DC008601F53088000330FB000830FC007730D4
:1003EC00FD00FD0BF729FC0BF729FB0BF729880106
:1003FC00FA3086000330FB000830FC007730FD003B
:10040C00FD0B062AFC0B062AFB0B062A8601FD3087
:10041C0088000330FB000830FC007730FD00FD0B3A
:10042C00152AFC0B152AFB0B152A8801FE308600B9
:10043C000330FB000830FC007730FD00FD0B242A54
:10044C00FC0B242AFB0B242A8601FF308800033086
:10045C00FB000830FC007730FD00FD0B332AFC0B51
:10046C00332AFB0B332AA001A10180302106F000B6
:10047C0080307002031D442A043020020318472BDD
:10048C0001308600803088000230FB000430FC0014
:10049C00BA30FD00FD0B502AFC0B502AFB0B502AE6
:1004AC00000003308600C03088000230FB000430AE
:1004BC00FC00BA30FD00FD0B612AFC0B612AFB0B22
:1004CC00612A000007308600E03088000230FB0013
:1004DC000430FC00BA30FD00FD0B722AFC0B722AB2
:1004EC00FB0B722A00000F308600F03088000230BF
:1004FC00FB000430FC00BA30FD00FD0B832AFC0B22
:10050C00832AFB0B832A00000E3086007030880093
:10051C000230FB000430FC00BA30FD00FD0B942AC5
:10052C00FC0B942AFB0B942A00000C308600303014
:10053C0088000230FB000430FC00BA30FD00FD0BDB
:10054C00A52AFC0BA52AFB0BA52A00000830860067
:10055C00103088000230FB000430FC00BA30FD0083
:10056C00FD0BB62AFC0BB62AFB0BB62A000010308A
:10057C008600083088000230FB000430FC00BA30E2
:10058C00FD00FD0BC72AFC0BC72AFB0BC72A00007A
:10059C00303086000C3088000230FB000430FC0048
:1005AC00BA30FD00FD0BD82AFC0BD82AFB0BD82A3D
:1005BC000000703086000E3088000230FB000430E2
:1005CC00FC00BA30FD00FD0BE92AFC0BE92AFB0B01
:1005DC00E92A0000F03086000F3088000230FB0062
:1005EC000430FC00BA30FD00FD0BFA2AFC0BFA2A91
:1005FC00FB0BFA2A0000E03086000730880002303E
:10060C00FB000430FC00BA30FD00FD0B0B2BFC0B87
:10061C000B2BFB0B0B2B0000C0308600033088002B
:10062C000230FB000430FC00BA30FD00FD0B1C2B2B
:10063C00FC0B1C2BFB0B1C2B0000803086000130AC
:10064C0088000230FB000430FC00BA30FD00FD0BCA
:10065C002D2BFC0B2D2BFB0B2D2B00008601880169
:10066C000230FB000430FC00BA30FD00FD0B3C2BCB
:10067C00FC0B3C2BFB0B3C2B0000A00A0319A10A22
:10068C003B2AA001A10180302106F00080307002CD
:10069C00031D522B053020020318572C0130860005
:1006AC00803088000230FB000430FC00BA30FD00C2
:1006BC00FD0B5E2BFC0B5E2BFB0B5E2B000002304C
:1006CC008600403088000230FB000430FC00BA3059
:1006DC00FD00FD0B6F2BFC0B6F2BFB0B6F2B00002E
:1006EC0004308600203088000230FB000430FC000F
:1006FC00BA30FD00FD0B802BFC0B802BFB0B802BF1
:10070C00000008308600103088000230FB000430F6
:10071C00FC00BA30FD00FD0B912BFC0B912BFB0B5D
:10072C00912B000010308600083088000230FB004E
:10073C000430FC00BA30FD00FD0BA22BFC0BA22BED
:10074C00FB0BA22B00002030860004308800023006
:10075C00FB000430FC00BA30FD00FD0BB32BFC0B8E
:10076C00B32BFB0BB32B000040308600023088000B
:10077C000230FB000430FC00BA30FD00FD0BC42B32
:10078C00FC0BC42BFB0BC42B00008030860001300B
:10079C0088000230FB000430FC00BA30FD00FD0B79
:1007AC00D52BFC0BD52BFB0BD52B0000403086003A
:1007BC00023088000230FB000430FC00BA30FD002F
:1007CC00FD0BE62BFC0BE62BFB0BE62B0000203085
:1007DC008600043088000230FB000430FC00BA3084
:1007EC00FD00FD0BF72BFC0BF72BFB0BF72B000085
:1007FC0010308600083088000230FB000430FC000A
:10080C00BA30FD00FD0B082CFC0B082CFB0B082C44
:10081C00000008308600103088000230FB000430E5
:10082C00FC00BA30FD00FD0B192CFC0B192CFB0B3A
:10083C00192C000004308600203088000230FB00A8
:10084C000430FC00BA30FD00FD0B2A2CFC0B2A2CCA
:10085C00FB0B2A2C0000023086004030880002304E
:10086C00FB000430FC00BA30FD00FD0B3B2CFC0BF4
:10087C003B2CFB0B3B2C00000130860080308800A9
:10088C000230FB000430FC00BA30FD00FD0B4C2C98
:10089C00FC0B4C2CFB0B4C2C0000A00A0319A10ADE
:0608AC00492B2228582C04
:02400E004A2F37
:00000001FF
