:020000001628C0
:0E0006008312031321088A00200882000800DC
:1000140003208A110A128000840AA00A0319A10A83
:08002400F003031D0A28080087
:10002C00831603138601831286018601D030FC00EF
:10003C00C930FD00FD0B2028FC0B2028000000001F
:10004C00FF308600D030FC00C930FD00FD0B2C28A1
:10005C00FC0B2C28000000008601D030FC00C930BD
:10006C00FD00FD0B3728FC0B372800000000FF308B
:10007C008600D030FC00C930FD00FD0B4328FC0B82
:10008C004328000000008601D030FC00C930FD0080
:10009C00FD0B4E28FC0B4E2800000000FF308600A4
:1000AC00D030FC00C930FD00FD0B5A28FC0B5A283F
:1000BC00000000008601D030FC00C930FD00FD0BB3
:1000CC006528FC0B652800000000FF308600D0304E
:1000DC00FC00C930FD00FD0B7128FC0B71280000E1
:1000EC000000803086000230FB005230FC00A6304D
:1000FC00FD00FD0B7F28FC0B7F28FB0B7F280000ED
:10010C00C03086000230FB005230FC00A630FD00EF
:10011C00FD0B8E28FC0B8E28FB0B8E280000E0308C
:10012C0086000230FB005230FC00A630FD00FD0BB7
:10013C009D28FC0B9D28FB0B9D280000E0308600C1
:10014C000230FB005230FC00A630FD00FD0BAC2849
:10015C00FC0BAC28FB0BAC280000303086000230C6
:10016C00FB005230FC00A630FD00FD0BBB28FC0B45
:10017C00BB28FB0BBB280000203086000230FB00A4
:10018C005230FC00A630FD00FD0BCA28FC0BCA281F
:10019C00FB0BCA28000086010230FB005230FC0029
:1001AC00A630FD00FD0BD828FC0BD828FB0BD8285B
:1001BC000000203086000230FB005230FC00A630DC
:1001CC00FD00FD0BE728FC0BE728FB0BE7280000E4
:1001DC00303086000230FB005230FC00A630FD00AF
:1001EC00FD0BF628FC0BF628FB0BF628000038302C
:1001FC0086000230FB005230FC00A630FD00FD0BE7
:10020C000529FC0B0529FB0B05290000183086007D
:10021C000230FB005230FC00A630FD00FD0B14290F
:10022C00FC0B1429FB0B142900000830860002304B
:10023C00FB005230FC00A630FD00FD0B2329FC0B0B
:10024C002329FB0B2329000086010230FB005230CE
:10025C00FC00A630FD00FD0B3129FC0B3129FB0BFA
:10026C0031290000083086000230FB005230FC00BF
:10027C00A630FD00FD0B4029FC0B4029FB0B40294F
:10028C0000000C3086000230FB005230FC00A6301F
:10029C00FD00FD0B4F29FC0B4F29FB0B4F290000D8
:1002AC000E3086000230FB005230FC00A630FD0000
:1002BC00FD0B5E29FC0B5E29FB0B5E290000063052
:1002CC0086000230FB005230FC00A630FD00FD0B16
:1002DC006D29FC0B6D29FB0B6D290000023086008B
:1002EC000230FB005230FC00A630FD00FD0B7C29D7
:1002FC00FC0B7C29FB0B7C29000086010230FB00E7
:10030C005230FC00A630FD00FD0B8A29FC0B8A291B
:10031C00FB0B8A290000023086000230FB005230B1
:10032C00FC00A630FD00FD0B9929FC0B9929FB0B59
:10033C0099290000033086000230FB005230FC008B
:10034C00A630FD00FD0BA829FC0BA829FB0BA82946
:10035C000000833086000230FB005230FC00A630D7
:10036C00FD00FD0BB729FC0BB729FB0BB7290000CF
:10037C00813086000230FB005230FC00A630FD00BC
:10038C00FD0BC629FC0BC629FB0BC62900008030CF
:10039C0086000230FB005230FC00A630FD00FD0B45
:1003AC00D529FC0BD529FB0BD52900008601023081
:1003BC00FB005230FC00A630FD00FD0BE329FC0BCA
:1003CC00E329FB0BE3290000803086000230FB00A0
:1003DC005230FC00A630FD00FD0BF229FC0BF2297B
:1003EC00FB0BF2290000C03086000230FB005230BB
:1003FC00FC00A630FD00FD0B012AFC0B012AFB0BB7
:10040C00012A0000E03086000230FB005230FC0074
:10041C00A630FD00FD0B102AFC0B102AFB0B102A3A
:10042C000000E03086000230FB005230FC00A630A9
:10043C00FD00FD0B1F2AFC0B1F2AFB0B1F2A0000C3
:10044C00303086000230FB005230FC00A630FD003C
:10045C00FD0B2E2AFC0B2E2AFB0B2E2A0000203023
:10046C0086000230FB005230FC00A630FD00FD0B74
:10047C003D2AFC0B3D2AFB0B3D2A00008601023075
:10048C00FB005230FC00A630FD00FD0B4B2AFC0B90
:10049C004B2AFB0B4B2A0000203086000230FB005D
:1004AC005230FC00A630FD00FD0B5A2AFC0B5A2AD8
:1004BC00FB0B5A2A0000303086000230FB00523011
:1004CC00FC00A630FD00FD0B692AFC0B692AFB0B16
:1004DC00692A0000383086000230FB005230FC00E4
:1004EC00A630FD00FD0B782AFC0B782AFB0B782A32
:1004FC000000183086000230FB005230FC00A630A1
:10050C00FD00FD0B872AFC0B872AFB0B872A0000BA
:10051C00083086000230FB005230FC00A630FD0093
:10052C00FD0B962AFC0B962AFB0B962A00008601E3
:10053C000230FB005230FC00A630FD00FD0BA42A5B
:10054C00FC0BA42AFB0BA42A000008308600023006
:10055C00FB005230FC00A630FD00FD0BB32AFC0B57
:10056C00B32AFB0BB32A00000C3086000230FB00D0
:10057C005230FC00A630FD00FD0BC22AFC0BC22A37
:10058C00FB0BC22A00000E3086000230FB005230FA
:10059C00FC00A630FD00FD0BD12AFC0BD12AFB0B75
:1005AC00D12A0000063086000230FB005230FC00DD
:1005BC00A630FD00FD0BE02AFC0BE02AFB0BE02A29
:1005CC000000023086000230FB005230FC00A630E6
:1005DC00FD00FD0BEF2AFC0BEF2AFB0BEF2A0000B2
:1005EC0086010230FB005230FC00A630FD00FD0BF2
:1005FC00FD2AFC0BFD2AFB0BFD2A000002308600B5
:10060C000230FB005230FC00A630FD00FD0B0C2B21
:10061C00FC0B0C2BFB0B0C2B000003308600023068
:10062C00FB005230FC00A630FD00FD0B1B2BFC0B1D
:10063C001B2BFB0B1B2B0000833086000230FB00B6
:10064C005230FC00A630FD00FD0B2A2BFC0B2A2B94
:10065C00FB0B2A2B0000813086000230FB0052304D
:10066C00FC00A630FD00FD0B392BFC0B392BFB0BD2
:10067C00392B0000803086000230FB005230FC0029
:10068C00A630FD00FD0B482BFC0B482BFB0B482B1D
:10069C00000086010230FB005230FC00A630FD0049
:1006AC00FD0B562BFC0B562BFB0B562B00008030F6
:1006BC0086000230FB005230FC00A630FD00FD0B22
:1006CC00652BFC0B652BFB0B652B0000C0308600EB
:1006DC000230FB005230FC00A630FD00FD0B742BE9
:1006EC00FC0B742BFB0B742B0000E03086000230EB
:1006FC00FB005230FC00A630FD00FD0B832BFC0BE5
:10070C00832BFB0B832B0000E03086000230FB00B8
:10071C005230FC00A630FD00FD0B922BFC0B922BF3
:10072C00FB0B922B0000303086000230FB00523065
:10073C00FC00A630FD00FD0BA12BFC0BA12BFB0B31
:10074C00A12B0000203086000230FB005230FC0050
:10075C00A630FD00FD0BB02BFC0BB02BFB0BB02B14
:10076C00000086010230FB005230FC00A630FD0078
:10077C00FD0BBE2BFC0BBE2BFB0BBE2B000020304D
:10078C0086000230FB005230FC00A630FD00FD0B51
:10079C00CD2BFC0BCD2BFB0BCD2B00003030860072
:1007AC000230FB005230FC00A630FD00FD0BDC2BB0
:1007BC00FC0BDC2BFB0BDC2B0000383086000230F2
:1007CC00FB005230FC00A630FD00FD0BEB2BFC0BAC
:1007DC00EB2BFB0BEB2B0000183086000230FB00E0
:1007EC005230FC00A630FD00FD0BFA2BFC0BFA2B53
:1007FC00FB0BFA2B0000083086000230FB00523055
:10080C00FC00A630FD00FD0B092CFC0B092CFB0B8E
:10081C00092C000086010230FB005230FC00A6308F
:10082C00FD00FD0B172CFC0B172CFB0B172C0000E1
:10083C00083086000230FB005230FC00A630FD0070
:10084C00FD0B262CFC0B262CFB0B262C00000C3055
:10085C0086000230FB005230FC00A630FD00FD0B80
:10086C00352CFC0B352CFB0B352C00000E30860088
:10087C000230FB005230FC00A630FD00FD0B442C76
:10088C00FC0B442CFB0B442C000006308600023081
:10089C00FB005230FC00A630FD00FD0B532CFC0B72
:1008AC00532CFB0B532C0000023086000230FB0053
:1008BC005230FC00A630FD00FD0B622CFC0B622CB0
:1008CC00FB0B622C000086010230FB005230FC0056
:1008DC00A630FD00FD0B702CFC0B702CFB0B702C50
:1008EC000000023086000230FB005230FC00A630C3
:1008FC00FD00FD0B7F2CFC0B7F2CFB0B7F2C0000D9
:10090C00033086000230FB005230FC00A630FD00A4
:10091C00FD0B8E2CFC0B8E2CFB0B8E2C00008330D5
:10092C0086000230FB005230FC00A630FD00FD0BAF
:10093C009D2CFC0B9D2CFB0B9D2C0000813086000C
:10094C000230FB005230FC00A630FD00FD0BAC2C3D
:10095C00FC0BAC2CFB0BAC2C000080308600023066
:10096C00FB005230FC00A630FD00FD0BBB2CFC0B39
:10097C00BB2CFB0BBB2C00008601D030FC00C9301B
:10098C00FD00FD0BC72CFC0BC72C00000000FF303A
:10099C008600D030FC00C930FD00FD0BD32CFC0BC5
:1009AC00D32C000000008601D030FC00C930FD00C3
:1009BC00FD0BDE2CFC0BDE2C00000000FF30860053
:1009CC00D030FC00C930FD00FD0BEA2CFC0BEA2CEE
:1009DC00000000008601D030FC00C930FD00FD0B8A
:1009EC00F52CFC0BF52C00000000FF308600D030FD
:1009FC00FC00C930FD00FD0B012DFC0B012D00008E
:100A0C0000008601D030FC00C930FD00FD0B0C2D20
:100A1C00FC0B0C2D00000000FF308600D030FC00D9
:100A2C00C930FD00FD0B182DFC0B182D000000002B
:100A3C00803086000330FB000830FC007730FD006E
:100A4C00FD0B262DFC0B262DFB0B262DFF308600D7
:100A5C000330FB000830FC007730FD00FD0B342D1B
:100A6C00FC0B342DFB0B342DC03086000330FB0007
:100A7C000830FC007730FD00FD0B422DFC0B422DA5
:100A8C00FB0B422DFF3086000330FB000830FC00CE
:100A9C007730FD00FD0B502DFC0B502DFB0B502D1A
:100AAC00E03086000330FB000830FC007730FD009E
:100ABC00FD0B5E2DFC0B5E2DFB0B5E2DFF308600BF
:100ACC000330FB000830FC007730FD00FD0B6C2D73
:100ADC00FC0B6C2DFB0B6C2DF03086000330FB00F7
:100AEC000830FC007730FD00FD0B7A2DFC0B7A2DC5
:100AFC00FB0B7A2DFF3086000330FB000830FC0026
:100B0C007730FD00FD0B882DFC0B882DFB0B882D01
:100B1C00F83086000330FB000830FC007730FD0015
:100B2C00FD0B962DFC0B962DFB0B962DFF308600A6
:100B3C000330FB000830FC007730FD00FD0BA42DCA
:100B4C00FC0BA42DFB0BA42DFC3086000330FB000A
:100B5C000830FC007730FD00FD0BB22DFC0BB22DE4
:100B6C00FB0BB22DFF3086000330FB000830FC007D
:100B7C007730FD00FD0BC02DFC0BC02DFB0BC02DE9
:100B8C00FE3086000330FB000830FC007730FD009F
:100B9C00FD0BCE2DFC0BCE2DFB0BCE2DFF3086008E
:100BAC000330FB000830FC007730FD00FD0BDC2D22
:100BBC00FC0BDC2DFB0BDC2DFF3086000330FB0027
:100BCC000830FC007730FD00FD0BEA2DFC0BEA2D04
:100BDC00FB0BEA2DFF3086000330FB000830FC00D5
:100BEC007730FD00FD0BF82DFC0BF82DFB0BF82DD1
:100BFC007F3086000330FB000830FC007730FD00AE
:100C0C00FD0B062EFC0B062EFB0B062EFF30860072
:100C1C000330FB000830FC007730FD00FD0B142E78
:100C2C00FC0B142EFB0B142E3F3086000330FB0004
:100C3C000830FC007730FD00FD0B222EFC0B222E21
:100C4C00FB0B222EFF3086000330FB000830FC002B
:100C5C007730FD00FD0B302EFC0B302EFB0B302EB5
:100C6C001F3086000330FB000830FC007730FD009D
:100C7C00FD0B3E2EFC0B3E2EFB0B3E2EFF3086005A
:100C8C000330FB000830FC007730FD00FD0B4C2ED0
:100C9C00FC0B4C2EFB0B4C2E0F3086000330FB0054
:100CAC000830FC007730FD00FD0B5A2EFC0B5A2E41
:100CBC00FB0B5A2EFF3086000330FB000830FC0083
:100CCC007730FD00FD0B682EFC0B682EFB0B682E9D
:100CDC00073086000330FB000830FC007730FD0045
:100CEC00FD0B762EFC0B762EFB0B762EFF30860042
:100CFC000330FB000830FC007730FD00FD0B842E28
:100D0C00FC0B842EFB0B842E033086000330FB007F
:100D1C000830FC007730FD00FD0B922EFC0B922E60
:100D2C00FB0B922EFF3086000330FB000830FC00DA
:100D3C007730FD00FD0BA02EFC0BA02EFB0BA02E84
:100D4C00013086000330FB000830FC007730FD00DA
:100D5C00FD0BAE2EFC0BAE2EFB0BAE2EFF30860029
:100D6C000330FB000830FC007730FD00FD0BBC2E7F
:100D7C00FC0BBC2EFB0BBC2E86010330FB00083099
:100D8C00FC007730FD00FD0BC92EFC0BC92EFB0BB4
:100D9C00C92EFF3086000330FB000830FC00773092
:100DAC00FD00FD0BD72EFC0BD72EFB0BD72EAA303C
:100DBC0086000230FB00BA30FC008B30FD00FD0BCE
:100DCC00E52EFC0BE52EFB0BE52E0000000055304C
:100DDC0086000230FB00BA30FC008B30FD00FD0BAE
:100DEC00F52EFC0BF52EFB0BF52E00000000AA30A7
:100DFC0086000230FB00BA30FC008B30FD00FD0B8E
:100E0C00052FFC0B052FFB0B052F000000005530A8
:100E1C0086000230FB00BA30FC008B30FD00FD0B6D
:100E2C00152FFC0B152FFB0B152F00000000AA3003
:100E3C0086000230FB00BA30FC008B30FD00FD0B4D
:100E4C00252FFC0B252FFB0B252F00000000553008
:100E5C0086000230FB00BA30FC008B30FD00FD0B2D
:100E6C00352FFC0B352FFB0B352F000000001B28FA
:020E7C003E2F07
:02400E004A2F37
:00000001FF
