:020000000328D3
:1000060083160313860183128601FF3086000730AC
:10001600FB001730FC006A30FD00FD0B1028FC0BBE
:100026001028FB0B1028000086010730FB00173054
:10003600FC006A30FD00FD0B1E28FC0B1E28FB0B86
:100046001E280000803086000630FB001330FC00BE
:10005600AD30FD00FD0B2D28FC0B2D28FB0B2D28AC
:1000660000000000403086000630FB001330FC0024
:10007600AD30FD00FD0B3D28FC0B3D28FB0B3D285C
:1000860000000000203086000630FB001330FC0024
:10009600AD30FD00FD0B4D28FC0B4D28FB0B4D280C
:1000A60000000000103086000630FB001330FC0014
:1000B600AD30FD00FD0B5D28FC0B5D28FB0B5D28BC
:1000C60000000000083086000630FB001330FC00FC
:1000D600AD30FD00FD0B6D28FC0B6D28FB0B6D286C
:1000E60000000000043086000630FB001330FC00E0
:1000F600AD30FD00FD0B7D28FC0B7D28FB0B7D281C
:1001060000000000023086000630FB001330FC00C1
:10011600AD30FD00FD0B8D28FC0B8D28FB0B8D28CB
:1001260000000000013086000630FB001330FC00A2
:10013600AD30FD00FD0B9D28FC0B9D28FB0B9D287B
:1001460000000000023086000630FB001330FC0081
:10015600AD30FD00FD0BAD28FC0BAD28FB0BAD282B
:1001660000000000043086000630FB001330FC005F
:10017600AD30FD00FD0BBD28FC0BBD28FB0BBD28DB
:1001860000000000083086000630FB001330FC003B
:10019600AD30FD00FD0BCD28FC0BCD28FB0BCD288B
:1001A60000000000103086000630FB001330FC0013
:1001B600AD30FD00FD0BDD28FC0BDD28FB0BDD283B
:1001C60000000000203086000630FB001330FC00E3
:1001D600AD30FD00FD0BED28FC0BED28FB0BED28EB
:1001E60000000000403086000630FB001330FC00A3
:1001F600AD30FD00FD0BFD28FC0BFD28FB0BFD289B
:1002060000000000803086000630FB001330FC0042
:10021600AD30FD00FD0B0D29FC0B0D29FB0B0D2947
:100226000000000086010630FB001330FC00AD30F4
:10023600FD00FD0B1C29FC0B1C29FB0B1C290000D7
:100246000000FF3086000630FB001330FC00AD30A6
:10025600FD00FD0B2C29FC0B2C29FB0B2C29000087
:100266000000803086000630FB001330FC00AD3005
:10027600FD00FD0B3C29FC0B3C29FB0B3C29000037
:100286000000C03086000630FB001330FC00AD30A5
:10029600FD00FD0B4C29FC0B4C29FB0B4C290000E7
:1002A6000000E03086000630FB001330FC00AD3065
:1002B600FD00FD0B5C29FC0B5C29FB0B5C29000097
:1002C6000000F03086000630FB001330FC00AD3035
:1002D600FD00FD0B6C29FC0B6C29FB0B6C29000047
:1002E6000000F83086000630FB001330FC00AD300D
:1002F600FD00FD0B7C29FC0B7C29FB0B7C290000F7
:100306000000FC3086000630FB001330FC00AD30E8
:10031600FD00FD0B8C29FC0B8C29FB0B8C290000A6
:100326000000FE3086000630FB001330FC00AD30C6
:10033600FD00FD0B9C29FC0B9C29FB0B9C29000056
:100346000000FF3086000630FB001330FC00AD30A5
:10035600FD00FD0BAC29FC0BAC29FB0BAC29000006
:100366000000803086000630FB001330FC00AD3004
:10037600FD00FD0BBC29FC0BBC29FB0BBC290000B6
:100386000000C03086000630FB001330FC00AD30A4
:10039600FD00FD0BCC29FC0BCC29FB0BCC29000066
:1003A6000000E03086000630FB001330FC00AD3064
:1003B600FD00FD0BDC29FC0BDC29FB0BDC29000016
:1003C6000000F03086000630FB001330FC00AD3034
:1003D600FD00FD0BEC29FC0BEC29FB0BEC290000C6
:1003E6000000F83086000630FB001330FC00AD300C
:1003F600FD00FD0BFC29FC0BFC29FB0BFC29000076
:100406000000FC3086000630FB001330FC00AD30E7
:10041600FD00FD0B0C2AFC0B0C2AFB0B0C2A000022
:100426000000FE3086000630FB001330FC00AD30C5
:10043600FD00FD0B1C2AFC0B1C2AFB0B1C2A0000D2
:100446000000FF3086000630FB001330FC00AD30A4
:10045600FD00FD0B2C2AFC0B2C2AFB0B2C2A000082
:1004660000007F3086000630FB001330FC00AD3004
:10047600FD00FD0B3C2AFC0B3C2AFB0B3C2A000032
:1004860000003F3086000630FB001330FC00AD3024
:10049600FD00FD0B4C2AFC0B4C2AFB0B4C2A0000E2
:1004A60000001F3086000630FB001330FC00AD3024
:1004B600FD00FD0B5C2AFC0B5C2AFB0B5C2A000092
:1004C60000000F3086000630FB001330FC00AD3014
:1004D600FD00FD0B6C2AFC0B6C2AFB0B6C2A000042
:1004E6000000073086000630FB001330FC00AD30FC
:1004F600FD00FD0B7C2AFC0B7C2AFB0B7C2A0000F2
:100506000000033086000630FB001330FC00AD30DF
:10051600FD00FD0B8C2AFC0B8C2AFB0B8C2A0000A1
:100526000000013086000630FB001330FC00AD30C1
:10053600FD00FD0B9C2AFC0B9C2AFB0B9C2A000051
:10054600000086010630FB001330FC00AD30FD00D4
:10055600FD0BAB2AFC0BAB2AFB0BAB2A0000000001
:10056600813086000630FB001330FC00AD30FD0004
:10057600FD0BBB2AFC0BBB2AFB0BBB2A00000000B1
:10058600C33086000630FB001330FC00AD30FD00A2
:10059600FD0BCB2AFC0BCB2AFB0BCB2A0000000061
:1005A600E73086000630FB001330FC00AD30FD005E
:1005B600FD0BDB2AFC0BDB2AFB0BDB2A0000000011
:1005C600FF3086000630FB001330FC00AD30FD0026
:1005D600FD0BEB2AFC0BEB2AFB0BEB2A00000000C1
:1005E600E73086000630FB001330FC00AD30FD001E
:1005F600FD0BFB2AFC0BFB2AFB0BFB2A0000000071
:10060600C33086000630FB001330FC00AD30FD0021
:10061600FD0B0B2BFC0B0B2BFB0B0B2B000000001D
:10062600813086000630FB001330FC00AD30FD0043
:10063600FD0B1B2BFC0B1B2BFB0B1B2B00000000CD
:1006460086010630FB001330FC00AD30FD00FD0BCB
:100656002A2BFC0B2A2BFB0B2A2B000000008130D7
:1006660086000630FB001330FC00AD30FD00FD0BAC
:100676003A2BFC0B3A2BFB0B3A2B00000000C33045
:1006860086000630FB001330FC00AD30FD00FD0B8C
:100696004A2BFC0B4A2BFB0B4A2B00000000E730D1
:1006A60086000630FB001330FC00AD30FD00FD0B6C
:1006B6005A2BFC0B5A2BFB0B5A2B00000000FF3069
:1006C60086000630FB001330FC00AD30FD00FD0B4C
:1006D6006A2BFC0B6A2BFB0B6A2B000000007E309A
:1006E60086000630FB001330FC00AD30FD00FD0B2C
:1006F6007A2BFC0B7A2BFB0B7A2B000000003C308C
:1007060086000630FB001330FC00AD30FD00FD0B0B
:100716008A2BFC0B8A2BFB0B8A2B0000000018305F
:1007260086000630FB001330FC00AD30FD00FD0BEB
:100736009A2BFC0B9A2BFB0B9A2B000000008601D0
:100746000630FB001330FC00AD30FD00FD0BA92B7D
:10075600FC0BA92BFB0BA92B000000001830860010
:100766000630FB001330FC00AD30FD00FD0BB92B4D
:10077600FC0BB92BFB0BB92B000000003C308600AC
:100786000630FB001330FC00AD30FD00FD0BC92B1D
:10079600FC0BC92BFB0BC92B000000007E3086002A
:1007A6000630FB001330FC00AD30FD00FD0BD92BED
:1007B600FC0BD92BFB0BD92B00000000FF30860069
:1007C6000630FB001330FC00AD30FD00FD0BE92BBD
:1007D600FC0BE92BFB0BE92B00000000E730860041
:1007E6000630FB001330FC00AD30FD00FD0BF92B8D
:1007F600FC0BF92BFB0BF92B00000000C330860025
:100806000630FB001330FC00AD30FD00FD0B092C5B
:10081600FC0B092CFB0B092C000000008130860024
:100826000630FB001330FC00AD30FD00FD0B192C2B
:10083600FC0B192CFB0B192C00000000860106305E
:10084600FB001330FC00AD30FD00FD0B282CFC0B2B
:10085600282CFB0B282C00000000183086000630E0
:10086600FB001330FC00AD30FD00FD0B382CFC0BFB
:10087600382CFB0B382C000000003C30860006307C
:10088600FB001330FC00AD30FD00FD0B482CFC0BCB
:10089600482CFB0B482C000000007E3086000630FA
:1008A600FB001330FC00AD30FD00FD0B582CFC0B9B
:1008B600582CFB0B582C00000000FF308600063039
:1008C600FB001330FC00AD30FD00FD0B682CFC0B6B
:1008D600682CFB0B682C00000000E7308600063011
:1008E600FB001330FC00AD30FD00FD0B782CFC0B3B
:1008F600782CFB0B782C00000000C33086000630F5
:10090600FB001330FC00AD30FD00FD0B882CFC0B0A
:10091600882CFB0B882C00000000813086000630F6
:10092600FB001330FC00AD30FD00FD0B982CFC0BDA
:10093600982CFB0B982C0000000086010630FB006B
:100946001330FC00AD30FD00FD0BA72CFC0BA72CD3
:10095600FB0BA72C00000000FF3086000630FB00D2
:100966001330FC00AD30FD00FD0BB72CFC0BB72C93
:10097600FB0BB72C000000007F3086000630FB0022
:100986001330FC00AD30FD00FD0BC72CFC0BC72C53
:10099600FB0BC72C00000000BF3086000630FB00B2
:1009A6001330FC00AD30FD00FD0BD72CFC0BD72C13
:1009B600FB0BD72C00000000DF3086000630FB0062
:1009C6001330FC00AD30FD00FD0BE72CFC0BE72CD3
:1009D600FB0BE72C00000000EF3086000630FB0022
:1009E6001330FC00AD30FD00FD0BF72CFC0BF72C93
:1009F600FB0BF72C00000000F73086000630FB00EA
:100A06001330FC00AD30FD00FD0B072DFC0B072D50
:100A1600FB0B072D00000000FB3086000630FB00B4
:100A26001330FC00AD30FD00FD0B172DFC0B172D10
:100A3600FB0B172D00000000FD3086000630FB0082
:100A46001330FC00AD30FD00FD0B272DFC0B272DD0
:100A5600FB0B272D00000000FE3086000630FB0051
:100A66001330FC00AD30FD00FD0B372DFC0B372D90
:100A7600FB0B372D00000000FF3086000630FB0020
:100A86001330FC00AD30FD00FD0B472DFC0B472D50
:100A9600FB0B472D000000007F3086000630FB0070
:100AA6001330FC00AD30FD00FD0B572DFC0B572D10
:100AB600FB0B572D00000000BF3086000630FB0000
:100AC6001330FC00AD30FD00FD0B672DFC0B672DD0
:100AD600FB0B672D00000000DF3086000630FB00B0
:100AE6001330FC00AD30FD00FD0B772DFC0B772D90
:100AF600FB0B772D00000000EF3086000630FB0070
:100B06001330FC00AD30FD00FD0B872DFC0B872D4F
:100B1600FB0B872D00000000F73086000630FB0037
:100B26001330FC00AD30FD00FD0B972DFC0B972D0F
:100B3600FB0B972D00000000FB3086000630FB0003
:100B46001330FC00AD30FD00FD0BA72DFC0BA72DCF
:100B5600FB0BA72D00000000FD3086000630FB00D1
:100B66001330FC00AD30FD00FD0BB72DFC0BB72D8F
:100B7600FB0BB72D00000000FE3086000630FB00A0
:100B86001330FC00AD30FD00FD0BC72DFC0BC72D4F
:100B9600FB0BC72D00000000FF3086000630FB006F
:100BA6001330FC00AD30FD00FD0BD72DFC0BD72D0F
:100BB600FB0BD72D000000007E3086000630FB00C0
:100BC6001330FC00AD30FD00FD0BE72DFC0BE72DCF
:100BD600FB0BE72D000000003C3086000630FB00D2
:100BE6001330FC00AD30FD00FD0BF72DFC0BF72D8F
:100BF600FB0BF72D00000000183086000630FB00C6
:100C06001330FC00AD30FD00FD0B072EFC0B072E4C
:100C1600FB0B072E0000000086010630FB00133098
:100C2600FC00AD30FD00FD0B162EFC0B162EFB0B4B
:100C3600162E00000000183086000630FB00133028
:100C4600FC00AD30FD00FD0B262EFC0B262EFB0B0B
:100C5600262E000000003C3086000630FB001330D4
:100C6600FC00AD30FD00FD0B362EFC0B362EFB0BCB
:100C7600362E000000007E3086000630FB00133062
:100C8600FC00AD30FD00FD0B462EFC0B462EFB0B8B
:100C9600462E00000000FF3086000630FB001330B1
:100CA600FC00AD30FD00FD0B562EFC0B562EFB0B4B
:100CB600562E00000000FF3086000630FB00133081
:100CC600FC00AD30FD00FD0B662EFC0B662EFB0B0B
:100CD600662E000000007E3086000630FB001330D2
:100CE600FC00AD30FD00FD0B762EFC0B762EFB0BCB
:100CF600762E000000003C3086000630FB001330E4
:100D0600FC00AD30FD00FD0B862EFC0B862EFB0B8A
:100D1600862E00000000183086000630FB001330D7
:100D2600FC00AD30FD00FD0B962EFC0B962EFB0B4A
:100D3600962E0000000086010630FB001330FC00F2
:100D4600AD30FD00FD0BA52EFC0BA52EFB0BA52E35
:100D560000000000183086000630FB001330FC004F
:100D6600AD30FD00FD0BB52EFC0BB52EFB0BB52EE5
:100D7600000000003C3086000630FB001330FC000B
:100D8600AD30FD00FD0BC52EFC0BC52EFB0BC52E95
:100D9600000000007E3086000630FB001330FC00A9
:100DA600AD30FD00FD0BD52EFC0BD52EFB0BD52E45
:100DB60000000000FF3086000630FB001330FC0008
:100DC600AD30FD00FD0BE52EFC0BE52EFB0BE52EF5
:100DD600000000007E3086000630FB001330FC0069
:100DE600AD30FD00FD0BF52EFC0BF52EFB0BF52EA5
:100DF60000000000BD3086000630FB001330FC000A
:100E0600AD30FD00FD0B052FFC0B052FFB0B052F51
:100E160000000000DB3086000630FB001330FC00CB
:100E2600AD30FD00FD0B152FFC0B152FFB0B152F01
:100E360000000000E73086000630FB001330FC009F
:100E4600AD30FD00FD0B252FFC0B252FFB0B252FB1
:100E560000000000FF3086000630FB001330FC0067
:100E6600AD30FD00FD0B352FFC0B352FFB0B352F61
:100E760000000000AA3086000630FB001330FC009C
:100E8600AD30FD00FD0B452FFC0B452FFB0B452F11
:100E960000000000553086000630FB001330FC00D1
:100EA600AD30FD00FD0B552FFC0B552FFB0B552FC1
:100EB60000000000AA3086000630FB001330FC005C
:100EC600AD30FD00FD0B652FFC0B652FFB0B652F71
:100ED60000000000553086000630FB001330FC0091
:100EE600AD30FD00FD0B752FFC0B752FFB0B752F21
:100EF60000000000AA3086000630FB001330FC001C
:100F0600AD30FD00FD0B852FFC0B852FFB0B852FD0
:100F160000000000553086000630FB001330FC0050
:100F2600AD30FD00FD0B952FFC0B952FFB0B952F80
:100F360000000000FF3086000630FB001330FC0086
:100F4600AD30FD00FD0BA52FFC0BA52FFB0BA52F30
:100F56000000000086010630FB001330FC00AD30B7
:100F6600FD00FD0BB42FFC0BB42FFB0BB42F0000C0
:100F76000000FF3086000630FB001330FC00AD3069
:100F8600FD00FD0BC42FFC0BC42FFB0BC42F000070
:100F9600000086010630FB001330FC00AD30FD007A
:100FA600FD0BD32FFC0BD32FFB0BD32F0000000020
:040FB6000828DC2FFC
:02400E004A2F37
:00000001FF
