:020000001628C0
:0E0006008312031321088A00200882000800DC
:1000140003208A110A128000840AA00A0319A10A83
:08002400F003031D0A28080087
:10002C00831603138601831286018030860002300A
:10003C00FB00C730FC008830FD00FD0B2328FC0BB7
:10004C002328FB0B23280000C03086000230FB0065
:10005C004530FC00A930FD00FD0B3228FC0B32288A
:10006C00FB0B322800000000403086000230FB0001
:10007C00C730FC008830FD00FD0B4228FC0B4228E9
:10008C00FB0B42280000603086000230FB0045303C
:10009C00FC00A930FD00FD0B5128FC0B5128FB0B7B
:1000AC00512800000000203086000230FB00C730D1
:1000BC00FC008830FD00FD0B6128FC0B6128FB0B5C
:1000CC0061280000303086000230FB004530FC0017
:1000DC00A930FD00FD0B7028FC0B7028FB0B702861
:1000EC0000000000103086000230FB00C730FC001E
:1000FC008830FD00FD0B8028FC0B8028FB0B802832
:10010C000000183086000230FB004530FC00A9309E
:10011C00FD00FD0B8F28FC0B8F28FB0B8F2800009C
:10012C000000083086000230FB00C730FC0088302D
:10013C00FD00FD0B9F28FC0B9F28FB0B9F2800004C
:10014C000C3086000230FB004530FC00A930FD006D
:10015C00FD0BAE28FC0BAE28FB0BAE2800000000FC
:10016C00043086000230FB00C730FC008830FD00F4
:10017C00FD0BBE28FC0BBE28FB0BBE280000063076
:10018C0086000230FB004530FC00A930FD00FD0B61
:10019C00CD28FC0BCD28FB0BCD2800000000023035
:1001AC0086000230FB00C730FC008830FD00FD0BE0
:1001BC00DD28FC0BDD28FB0BDD280000033086005E
:1001CC000230FB004530FC00A930FD00FD0BEC2893
:1001DC00FC0BEC28FB0BEC28000000000130860027
:1001EC000230FB00C730FC008830FD00FD0BFC2802
:1001FC00FC0BFC28FB0BFC280000033086000230B3
:10020C00FB004530FC00A930FD00FD0B0B29FC0B5D
:10021C000B29FB0B0B29000000000230860002307A
:10022C00FB00C730FC008830FD00FD0B1B29FC0BCC
:10023C001B29FB0B1B290000063086000230FB003B
:10024C004530FC00A930FD00FD0B2A29FC0B2A29A6
:10025C00FB0B2A2900000000043086000230FB0052
:10026C00C730FC008830FD00FD0B3A29FC0B3A2905
:10027C00FB0B3A2900000C3086000230FB004530A5
:10028C00FC00A930FD00FD0B4929FC0B4929FB0B97
:10029C00492900000000083086000230FB00C730FE
:1002AC00FC008830FD00FD0B5929FC0B5929FB0B78
:1002BC0059290000183086000230FB004530FC0044
:1002CC00A930FD00FD0B6829FC0B6829FB0B682984
:1002DC0000000000103086000230FB00C730FC002C
:1002EC008830FD00FD0B7829FC0B7829FB0B782955
:1002FC000000303086000230FB004530FC00A93095
:10030C00FD00FD0B8729FC0B8729FB0B87290000BF
:10031C000000203086000230FB00C730FC00883023
:10032C00FD00FD0B9729FC0B9729FB0B972900006F
:10033C00603086000230FB004530FC00A930FD0027
:10034C00FD0BA629FC0BA629FB0BA629000000001F
:10035C00403086000230FB00C730FC008830FD00C6
:10036C00FD0BB629FC0BB629FB0BB6290000C030DF
:10037C0086000230FB004530FC00A930FD00FD0B6F
:10038C00C529FC0BC529FB0BC529000000001B2847
:02039C00CE2968
:02400E004A2F37
:00000001FF
