:020000001628C0
:0E0006008312031321088A00200882000800DC
:1000140003208A110A128000840AA00A0319A10A83
:08002400F003031D0A28080087
:10002C00831603138601831286018601D030FC00EF
:10003C00C930FD00FD0B2028FC0B2028000000001F
:10004C00FF308600D030FC00C930FD00FD0B2C28A1
:10005C00FC0B2C28000000008601D030FC00C930BD
:10006C00FD00FD0B3728FC0B372800000000FF308B
:10007C008600D030FC00C930FD00FD0B4328FC0B82
:10008C004328000000008601D030FC00C930FD0080
:10009C00FD0B4E28FC0B4E2800000000FF308600A4
:1000AC00D030FC00C930FD00FD0B5A28FC0B5A283F
:1000BC00000000008601D030FC00C930FD00FD0BB3
:1000CC006528FC0B652800000000FF308600D0304E
:1000DC00FC00C930FD00FD0B7128FC0B71280000E1
:1000EC000000803086000230FB008630FC00993026
:1000FC00FD00FD0B7F28FC0B7F28FB0B7F28C030FD
:10010C0086000230FB008630FC009930FD00FD0BB0
:10011C008D28FC0B8D28FB0B8D28E03086000230DF
:10012C00FB008630FC009930FD00FD0B9B28FC0B7E
:10013C009B28FB0B9B28E03086000230FB008630AE
:10014C00FC009930FD00FD0BA928FC0BA928FB0B2A
:10015C00A928303086000230FB008630FC00993034
:10016C00FD00FD0BB728FC0BB728FB0BB728203084
:10017C0086000230FB008630FC009930FD00FD0B40
:10018C00C528FC0BC528FB0BC52886010230FB00DB
:10019C008630FC009930FD00FD0BD228FC0BD228D8
:1001AC00FB0BD228203086000230FB008630FC008E
:1001BC009930FD00FD0BE028FC0BE028FB0BE02840
:1001CC00303086000230FB008630FC009930FD0098
:1001DC00FD0BEE28FC0BEE28FB0BEE2838308600CE
:1001EC000230FB008630FC009930FD00FD0BFC2832
:1001FC00FC0BFC28FB0BFC28183086000230FB00A3
:10020C008630FC009930FD00FD0B0A29FC0B0A29F5
:10021C00FB0B0A29083086000230FB008630FC00FC
:10022C009930FD00FD0B1829FC0B1829FB0B182924
:10023C0086010230FB008630FC009930FD00FD0B7E
:10024C002529FC0B2529FB0B2529083086000230BB
:10025C00FB008630FC009930FD00FD0B3329FC0BB4
:10026C003329FB0B33290C3086000230FB0086301F
:10027C00FC009930FD00FD0B4129FC0B4129FB0BC7
:10028C0041290E3086000230FB008630FC0099308C
:10029C00FD00FD0B4F29FC0B4F29FB0B4F290630A2
:1002AC0086000230FB008630FC009930FD00FD0B0F
:1002BC005D29FC0B5D29FB0B5D29023086000230A9
:1002CC00FB008630FC009930FD00FD0B6B29FC0B0C
:1002DC006B29FB0B6B2986010230FB008630FC007E
:1002EC009930FD00FD0B7829FC0B7829FB0B782944
:1002FC00023086000230FB008630FC009930FD0095
:10030C00FD0B8629FC0B8629FB0B86290330860006
:10031C000230FB008630FC009930FD00FD0B942967
:10032C00FC0B9429FB0B9429833086000230FB00D4
:10033C008630FC009930FD00FD0BA229FC0BA22994
:10034C00FB0BA229813086000230FB008630FC00BA
:10035C009930FD00FD0BB029FC0BB029FB0BB0292B
:10036C00803086000230FB008630FC009930FD00A6
:10037C00FD0BBE29FC0BBE29FB0BBE2986010230EE
:10038C00FB008630FC009930FD00FD0BCB29FC0BEB
:10039C00CB29FB0BCB29803086000230FB0086304A
:1003AC00FC009930FD00FD0BD929FC0BD929FB0B66
:1003BC00D929C03086000230FB008630FC00993011
:1003CC00FD00FD0BE729FC0BE729FB0BE729E030CF
:1003DC0086000230FB008630FC009930FD00FD0BDE
:1003EC00F529FC0BF529FB0BF529E03086000230D2
:1003FC00FB008630FC009930FD00FD0B032AFC0B42
:10040C00032AFB0B032A303086000230FB008630B7
:10041C00FC009930FD00FD0B112AFC0B112AFB0B83
:10042C00112A203086000230FB008630FC00993007
:10043C00FD00FD0B1F2AFC0B1F2AFB0B1F2A86013C
:10044C000230FB008630FC009930FD00FD0B2C2A9D
:10045C00FC0B2C2AFB0B2C2A203086000230FB00D4
:10046C008630FC009930FD00FD0B3A2AFC0B3A2A31
:10047C00FB0B3A2A303086000230FB008630FC0041
:10048C009930FD00FD0B482AFC0B482AFB0B482A2F
:10049C00383086000230FB008630FC009930FD00BD
:1004AC00FD0B562AFC0B562AFB0B562A18308600DD
:1004BC000230FB008630FC009930FD00FD0B642AF5
:1004CC00FC0B642AFB0B642A083086000230FB000C
:1004DC008630FC009930FD00FD0B722AFC0B722A51
:1004EC00FB0B722A86010230FB008630FC0099302F
:1004FC00FD00FD0B7F2AFC0B7F2AFB0B7F2A0830AB
:10050C0086000230FB008630FC009930FD00FD0BAC
:10051C008D2AFC0B8D2AFB0B8D2A0C3086000230A9
:10052C00FB008630FC009930FD00FD0B9B2AFC0B78
:10053C009B2AFB0B9B2A0E3086000230FB00863078
:10054C00FC009930FD00FD0BA92AFC0BA92AFB0B22
:10055C00A92A063086000230FB008630FC00993058
:10056C00FD00FD0BB72AFC0BB72AFB0BB72A023098
:10057C0086000230FB008630FC009930FD00FD0B3C
:10058C00C52AFC0BC52AFB0BC52A86010230FB00D1
:10059C008630FC009930FD00FD0BD22AFC0BD22AD0
:1005AC00FB0BD22A023086000230FB008630FC00A6
:1005BC009930FD00FD0BE02AFC0BE02AFB0BE02A36
:1005CC00033086000230FB008630FC009930FD00C1
:1005DC00FD0BEE2AFC0BEE2AFB0BEE2A8330860079
:1005EC000230FB008630FC009930FD00FD0BFC2A2C
:1005FC00FC0BFC2AFB0BFC2A813086000230FB0032
:10060C008630FC009930FD00FD0B0A2BFC0B0A2BED
:10061C00FB0B0A2B803086000230FB008630FC007E
:10062C009930FD00FD0B182BFC0B182BFB0B182B1A
:10063C0086010230FB008630FC009930FD00FD0B7A
:10064C00252BFC0B252BFB0B252B80308600023039
:10065C00FB008630FC009930FD00FD0B332BFC0BAE
:10066C00332BFB0B332BC03086000230FB00863063
:10067C00FC009930FD00FD0B412BFC0B412BFB0BBF
:10068C00412BE03086000230FB008630FC009930B4
:10069C00FD00FD0B4F2BFC0B4F2BFB0B4F2BE030BE
:1006AC0086000230FB008630FC009930FD00FD0B0B
:1006BC005D2BFC0B5D2BFB0B5D2B30308600023071
:1006CC00FB008630FC009930FD00FD0B6B2BFC0B06
:1006DC006B2BFB0B6B2B203086000230FB00863023
:1006EC00FC009930FD00FD0B792BFC0B792BFB0BDF
:1006FC00792B86010230FB008630FC009930FD001E
:10070C00FD0B862BFC0B862BFB0B862B20308600DF
:10071C000230FB008630FC009930FD00FD0B942B61
:10072C00FC0B942BFB0B942B303086000230FB001F
:10073C008630FC009930FD00FD0BA22BFC0BA22B8C
:10074C00FB0BA22B383086000230FB008630FC00FD
:10075C009930FD00FD0BB02BFC0BB02BFB0BB02B21
:10076C00183086000230FB008630FC009930FD000A
:10077C00FD0BBE2BFC0BBE2BFB0BBE2B08308600DF
:10078C000230FB008630FC009930FD00FD0BCC2BB9
:10079C00FC0BCC2BFB0BCC2B86010230FB008630E8
:1007AC00FC009930FD00FD0BD92BFC0BD92BFB0B5E
:1007BC00D92B083086000230FB008630FC009930C3
:1007CC00FD00FD0BE72BFC0BE72BFB0BE72B0C3099
:1007DC0086000230FB008630FC009930FD00FD0BDA
:1007EC00F52BFC0BF52BFB0BF52B0E30860002309A
:1007FC00FB008630FC009930FD00FD0B032CFC0B3C
:10080C00032CFB0B032C063086000230FB008630D9
:10081C00FC009930FD00FD0B112CFC0B112CFB0B7B
:10082C00112C023086000230FB008630FC0099301F
:10083C00FD00FD0B1F2CFC0B1F2CFB0B1F2C860132
:10084C000230FB008630FC009930FD00FD0B2C2C97
:10085C00FC0B2C2CFB0B2C2C023086000230FB00EA
:10086C008630FC009930FD00FD0B3A2CFC0B3A2C29
:10087C00FB0B3A2C033086000230FB008630FC0068
:10088C009930FD00FD0B482CFC0B482CFB0B482C25
:10089C00833086000230FB008630FC009930FD006E
:1008AC00FD0B562CFC0B562CFB0B562C813086006A
:1008BC000230FB008630FC009930FD00FD0B642CEF
:1008CC00FC0B642CFB0B642C803086000230FB008C
:1008DC008630FC009930FD00FD0B722CFC0B722C49
:1008EC00FB0B722C8601D030FC00C930FD00FD0BD7
:1008FC007D2CFC0B7D2C00000000FF308600D030DE
:10090C00FC00C930FD00FD0B892CFC0B892C000070
:10091C0000008601D030FC00C930FD00FD0B942C8A
:10092C00FC0B942C00000000FF308600D030FC0043
:10093C00C930FD00FD0BA02CFC0BA02C000000000E
:10094C008601D030FC00C930FD00FD0BAB2CFC0B3C
:10095C00AB2C00000000FF308600D030FC00C9300A
:10096C00FD00FD0BB72CFC0BB72C00000000860122
:10097C00D030FC00C930FD00FD0BC22CFC0BC22C8E
:10098C0000000000FF308600D030FC00C930FD00B4
:10099C00FD0BCE2CFC0BCE2C000000008030860012
:1009AC000230FB003830FC00AD30FD00FD0BDC2CC0
:1009BC00FC0BDC2CFB0BDC2CFF3086000230FB002C
:1009CC003830FC00AD30FD00FD0BEA2CFC0BEA2CA2
:1009DC00FB0BEA2CC03086000230FB003830FC00E8
:1009EC00AD30FD00FD0BF82CFC0BF82CFB0BF82CA0
:1009FC00FF3086000230FB003830FC00AD30FD00CB
:100A0C00FD0B062DFC0B062DFB0B062DE030860096
:100A1C000230FB003830FC00AD30FD00FD0B142D16
:100A2C00FC0B142DFB0B142DFF3086000230FB0049
:100A3C003830FC00AD30FD00FD0B222DFC0B222DBF
:100A4C00FB0B222DF03086000230FB003830FC000E
:100A5C00AD30FD00FD0B302DFC0B302DFB0B302D84
:100A6C00FF3086000230FB003830FC00AD30FD005A
:100A7C00FD0B3E2DFC0B3E2DFB0B3E2DF830860066
:100A8C000230FB003830FC00AD30FD00FD0B4C2D6E
:100A9C00FC0B4C2DFB0B4C2DFF3086000230FB0069
:100AAC003830FC00AD30FD00FD0B5A2DFC0B5A2DDF
:100ABC00FB0B5A2DFC3086000230FB003830FC005A
:100ACC00AD30FD00FD0B682DFC0B682DFB0B682D6C
:100ADC00FF3086000230FB003830FC00AD30FD00EA
:100AEC00FD0B762DFC0B762DFB0B762DFE30860048
:100AFC000230FB003830FC00AD30FD00FD0B842DC6
:100B0C00FC0B842DFB0B842DFF3086000230FB0088
:100B1C003830FC00AD30FD00FD0B922DFC0B922DFE
:100B2C00FB0B922DFF3086000230FB003830FC00AE
:100B3C00AD30FD00FD0BA02DFC0BA02DFB0BA02D53
:100B4C00FF3086000230FB003830FC00AD30FD0079
:100B5C00FD0BAE2DFC0BAE2DFB0BAE2D7F308600AE
:100B6C000230FB003830FC00AD30FD00FD0BBC2D1D
:100B7C00FC0BBC2DFB0BBC2DFF3086000230FB00A8
:100B8C003830FC00AD30FD00FD0BCA2DFC0BCA2D1E
:100B9C00FB0BCA2D3F3086000230FB003830FC00C6
:100BAC00AD30FD00FD0BD82DFC0BD82DFB0BD82D3B
:100BBC00FF3086000230FB003830FC00AD30FD0009
:100BCC00FD0BE62DFC0BE62DFB0BE62D1F308600F6
:100BDC000230FB003830FC00AD30FD00FD0BF42D75
:100BEC00FC0BF42DFB0BF42DFF3086000230FB00C8
:100BFC003830FC00AD30FD00FD0B022EFC0B022E3C
:100C0C00FB0B022E0F3086000230FB003830FC004C
:100C1C00AD30FD00FD0B102EFC0B102EFB0B102E1F
:100C2C00FF3086000230FB003830FC00AD30FD0098
:100C3C00FD0B1E2EFC0B1E2EFB0B1E2E07308600F2
:100C4C000230FB003830FC00AD30FD00FD0B2C2ECB
:100C5C00FC0B2C2EFB0B2C2EFF3086000230FB00E5
:100C6C003830FC00AD30FD00FD0B3A2EFC0B3A2E5B
:100C7C00FB0B3A2E033086000230FB003830FC00B0
:100C8C00AD30FD00FD0B482EFC0B482EFB0B482E07
:100C9C00FF3086000230FB003830FC00AD30FD0028
:100CAC00FD0B562EFC0B562EFB0B562E01308600E0
:100CBC000230FB003830FC00AD30FD00FD0B642E23
:100CCC00FC0B642EFB0B642EFF3086000230FB0005
:100CDC003830FC00AD30FD00FD0B722EFC0B722E7B
:100CEC00FB0B722E86010230FB003830FC00AD305D
:100CFC00FD00FD0B7F2EFC0B7F2EFB0B7F2EFF30A0
:100D0C0086000230FB003830FC00AD30FD00FD0BDE
:100D1C008D2EFC0B8D2EFB0B8D2EAA3086000230F7
:100D2C00FB008630FC009930FD00FD0B9B2EFC0B6C
:100D3C009B2EFB0B9B2E553086000230FB00863021
:100D4C00FC009930FD00FD0BA92EFC0BA92EFB0B12
:100D5C00A92EAA3086000230FB008630FC009930A8
:100D6C00FD00FD0BB72EFC0BB72EFB0BB72E553031
:100D7C0086000230FB008630FC009930FD00FD0B34
:100D8C00C52EFC0BC52EFB0BC52EAA3086000230DF
:100D9C00FB008630FC009930FD00FD0BD32EFC0BC4
:100DAC00D32EFB0BD32E553086000230FB00863041
:100DBC00FC009930FD00FD0BE12EFC0BE12EFB0B32
:060DCC00E12E1B28E82EB9
:02400E004A2F37
:00000001FF
