:020000001628C0
:0E0006008312031321088A00200882000800DC
:1000140003208A110A128000840AA00A0319A10A83
:08002400F003031D0A28080087
:10002C0083160313860183128601A201A30180307B
:10003C002306F00080307002031D262808302202AF
:10004C0003184128FF308600B630FC00D030FD008C
:10005C00FD0B2E28FC0B2E2800008601B630FC0070
:10006C00D030FD00FD0B3828FC0B38280000A20A0C
:10007C000319A30A1D28A201A30180302306F00056
:10008C0080307002031D4C28033022020318BE2955
:10009C00803086000230FB00C730FC008830FD0049
:1000AC00FD0B5628FC0B5628FB0B56280000C030C5
:1000BC008600B630FC00D030FD00FD0B6328FC0B35
:1000CC0063280000403086000230FB00C730FC0083
:1000DC008830FD00FD0B7028FC0B7028FB0B702882
:1000EC00000060308600B630FC00D030FD00FD0B07
:1000FC007D28FC0B7D280000203086000230FB00A0
:10010C00C730FC008830FD00FD0B8A28FC0B8A28C8
:10011C00FB0B8A28000030308600B630FC00D03053
:10012C00FD00FD0B9728FC0B972800001030860073
:10013C000230FB00C730FC008830FD00FD0BA4280A
:10014C00FC0BA428FB0BA428000018308600B6304A
:10015C00FC00D030FD00FD0BB128FC0BB1280000D9
:10016C00083086000230FB00C730FC008830FD00F0
:10017C00FD0BBE28FC0BBE28FB0BBE2800000C3070
:10018C008600B630FC00D030FD00FD0BCB28FC0BFC
:10019C00CB280000043086000230FB00C730FC0086
:1001AC008830FD00FD0BD828FC0BD828FB0BD82879
:1001BC00000006308600B630FC00D030FD00FD0B90
:1001CC00E528FC0BE5280000023086000230FB001D
:1001DC00C730FC008830FD00FD0BF228FC0BF22828
:1001EC00FB0BF228000003308600B630FC00D03048
:1001FC00FD00FD0BFF28FC0BFF28000001308600E2
:10020C000230FB00C730FC008830FD00FD0B0C29D0
:10021C00FC0B0C29FB0B0C29000003308600B630BC
:10022C00FC00D030FD00FD0B1929FC0B1929000036
:10023C00023086000230FB00C730FC008830FD0025
:10024C00FD0B2629FC0B2629FB0B2629000006306A
:10025C008600B630FC00D030FD00FD0B3329FC0BC2
:10026C0033290000043086000230FB00C730FC004C
:10027C008830FD00FD0B4029FC0B4029FB0B40296D
:10028C0000000C308600B630FC00D030FD00FD0BB9
:10029C004D29FC0B4D290000083086000230FB0074
:1002AC00C730FC008830FD00FD0B5A29FC0B5A2985
:1002BC00FB0B5A29000018308600B630FC00D030F9
:1002CC00FD00FD0B6729FC0B672900001030860030
:1002DC000230FB00C730FC008830FD00FD0B742998
:1002EC00FC0B7429FB0B7429000030308600B630EF
:1002FC00FC00D030FD00FD0B8129FC0B8129000096
:10030C00203086000230FB00C730FC008830FD0036
:10031C00FD0B8E29FC0B8E29FB0B8E290000603007
:10032C008600B630FC00D030FD00FD0B9B29FC0B89
:10033C009B290000403086000230FB00C730FC00D7
:10034C008830FD00FD0BA829FC0BA829FB0BA82964
:10035C000000C0308600B630FC00D030FD00FD0B34
:10036C00B529FC0BB5290000A20A0319A30A4328DE
:10037C00A201A30180302306F00080307002031D1F
:10038C00C929023022020318312A81308600033039
:10039C00FB000830FC007730FD00FD0BD329FC0B73
:1003AC00D329FB0BD329423086000330FB000830E5
:1003BC00FC007730FD00FD0BE129FC0BE129FB0B68
:1003CC00E129243086000330FB000830FC00773034
:1003DC00FD00FD0BEF29FC0BEF29FB0BEF2918306F
:1003EC0086000530FB000F30FC00F130FD00FD0BEA
:1003FC00FD29FC0BFD29FB0BFD2924308600033065
:10040C00FB000830FC007730FD00FD0B0B2AFC0BC9
:10041C000B2AFB0B0B2A423086000330FB00083002
:10042C00FC007730FD00FD0B192AFC0B192AFB0B85
:10043C00192A813086000330FB000830FC0077302D
:10044C00FD00FD0B272AFC0B272AFB0B272AA20AEF
:10045C000319A30AC02986010230FB000430FC00FA
:10046C00BA30FD00FD0B382AFC0B382AFB0B382A5E
:10047C000000FF3086000230FB000430FC00BA3074
:10048C00FD00FD0B472AFC0B472AFB0B472A0000FB
:10049C0086010230FB000430FC00BA30FD00FD0B7D
:1004AC00552AFC0B552AFB0B552A0000A201A3016F
:1004BC0080302306F00080307002031D672A043060
:1004CC0022020318F92A80308600EA30FC00C3307F
:1004DC00FD00FD0B6F2AFC0B6F2AC0308600EA3042
:1004EC00FC00C330FD00FD0B792AFC0B792AE030AF
:1004FC008600EA30FC00C330FD00FD0B832AFC0BA8
:10050C00832AF0308600EA30FC00C330FD00FD0B7E
:10051C008D2AFC0B8D2A70308600EA30FC00C3302B
:10052C00FD00FD0B972AFC0B972A30308600EA3031
:10053C00FC00C330FD00FD0BA12AFC0BA12A1030DE
:10054C008600EA30FC00C330FD00FD0BAB2AFC0B2F
:10055C00AB2A08308600EA30FC00C330FD00FD0BEE
:10056C00B52AFC0BB52A0C308600EA30FC00C330EF
:10057C00FD00FD0BBF2AFC0BBF2A0E308600EA30B3
:10058C00FC00C330FD00FD0BC92AFC0BC92A0F303F
:10059C008600EA30FC00C330FD00FD0BD32AFC0BB7
:1005AC00D32A07308600EA30FC00C330FD00FD0B77
:1005BC00DD2AFC0BDD2A03308600EA30FC00C33058
:1005CC00FD00FD0BE72AFC0BE72A01308600EA3020
:1005DC00FC00C330FD00FD0BF12AFC0BF12AA20A32
:1005EC000319A30A5E2AA201A30180302306F0009E
:1005FC0080307002031D042B023022020318D52C0C
:10060C00FF308600D030FC00C930FD00FD0B0C2BF8
:10061C00FC0B0C2B00000000803086000330FB002C
:10062C000830FC007730FD00FD0B1A2BFC0B1A2B4D
:10063C00FB0B1A2BFF3086000330FB000830FC004C
:10064C007730FD00FD0B282BFC0B282BFB0B282BEC
:10065C00C03086000330FB000830FC007730FD0012
:10066C00FD0B362BFC0B362BFB0B362BFF30860091
:10067C000330FB000830FC007730FD00FD0B442BF1
:10068C00FC0B442BFB0B442BE03086000330FB00AF
:10069C000830FC007730FD00FD0B522BFC0B522B6D
:1006AC00FB0B522BFF3086000330FB000830FC00A4
:1006BC007730FD00FD0B602BFC0B602BFB0B602BD4
:1006CC00F03086000330FB000830FC007730FD0072
:1006DC00FD0B6E2BFC0B6E2BFB0B6E2BFF30860079
:1006EC000330FB000830FC007730FD00FD0B7C2B49
:1006FC00FC0B7C2BFB0B7C2BF83086000330FB00B7
:10070C000830FC007730FD00FD0B8A2BFC0B8A2B8C
:10071C00FB0B8A2BFF3086000330FB000830FC00FB
:10072C007730FD00FD0B982BFC0B982BFB0B982BBB
:10073C00FC3086000330FB000830FC007730FD00F5
:10074C00FD0BA62BFC0BA62BFB0BA62BFF30860060
:10075C000330FB000830FC007730FD00FD0BB42BA0
:10076C00FC0BB42BFB0BB42BFE3086000330FB00D0
:10077C000830FC007730FD00FD0BC22BFC0BC22BAC
:10078C00FB0BC22BFF3086000330FB000830FC0053
:10079C007730FD00FD0BD02BFC0BD02BFB0BD02BA3
:1007AC00FF3086000330FB000830FC007730FD0082
:1007BC00FD0BDE2BFC0BDE2BFB0BDE2BFF30860048
:1007CC000330FB000830FC007730FD00FD0BEC2BF8
:1007DC00FC0BEC2BFB0BEC2B7F3086000330FB006F
:1007EC000830FC007730FD00FD0BFA2BFC0BFA2BCC
:1007FC00FB0BFA2BFF3086000330FB000830FC00AB
:10080C007730FD00FD0B082CFC0B082CFB0B082C87
:10081C003F3086000330FB000830FC007730FD00D1
:10082C00FD0B162CFC0B162CFB0B162CFF3086002C
:10083C000330FB000830FC007730FD00FD0B242C4E
:10084C00FC0B242CFB0B242C1F3086000330FB00EC
:10085C000830FC007730FD00FD0B322CFC0B322CE9
:10086C00FB0B322CFF3086000330FB000830FC0001
:10087C007730FD00FD0B402CFC0B402CFB0B402C6F
:10088C000F3086000330FB000830FC007730FD0091
:10089C00FD0B4E2CFC0B4E2CFB0B4E2CFF30860014
:1008AC000330FB000830FC007730FD00FD0B5C2CA6
:1008BC00FC0B5C2CFB0B5C2C073086000330FB0024
:1008CC000830FC007730FD00FD0B6A2CFC0B6A2C09
:1008DC00FB0B6A2CFF3086000330FB000830FC0059
:1008EC007730FD00FD0B782CFC0B782CFB0B782C57
:1008FC00033086000330FB000830FC007730FD002D
:10090C00FD0B862CFC0B862CFB0B862CFF308600FB
:10091C000330FB000830FC007730FD00FD0B942CFD
:10092C00FC0B942CFB0B942C013086000330FB0049
:10093C000830FC007730FD00FD0BA22CFC0BA22C28
:10094C00FB0BA22CFF3086000330FB000830FC00B0
:10095C007730FD00FD0BB02CFC0BB02CFB0BB02C3E
:10096C0086010330FB000830FC007730FD00FD0BE6
:10097C00BD2CFC0BBD2CFB0BBD2CFF3086000330BB
:10098C00FB000830FC007730FD00FD0BCB2CFC0B82
:10099C00CB2CFB0BCB2CA20A0319A30AFB2AA2011A
:1009AC00A30180302306F00080307002031DE02C80
:1009BC00023022020318A22E8601D030FC00C9306E
:1009CC00FD00FD0BE72CFC0BE72C00000000803039
:1009DC0086000330FB000830FC007730FD00FD0B77
:1009EC00F52CFC0BF52CFB0BF52C86010330FB00D6
:1009FC000830FC007730FD00FD0B022DFC0B022DA6
:100A0C00FB0B022DC03086000330FB000830FC00CD
:100A1C007730FD00FD0B102DFC0B102DFB0B102D5A
:100A2C0086010330FB000830FC007730FD00FD0B25
:100A3C001D2DFC0B1D2DFB0B1D2DE03086000330F6
:100A4C00FB000830FC007730FD00FD0B2B2DFC0B60
:100A5C002B2DFB0B2B2D86010330FB000830FC00EB
:100A6C007730FD00FD0B382DFC0B382DFB0B382D92
:100A7C00F03086000330FB000830FC007730FD00BE
:100A8C00FD0B462DFC0B462DFB0B462D8601033032
:100A9C00FB000830FC007730FD00FD0B532DFC0BE8
:100AAC00532DFB0B532DF83086000330FB00083020
:100ABC00FC007730FD00FD0B612DFC0B612DFB0B59
:100ACC00612D86010330FB000830FC007730FD00FF
:100ADC00FD0B6E2DFC0B6E2DFB0B6E2DFC30860072
:100AEC000330FB000830FC007730FD00FD0B7C2D43
:100AFC00FC0B7C2DFB0B7C2D86010330FB0008309E
:100B0C00FC007730FD00FD0B892DFC0B892DFB0BB8
:100B1C00892DFE3086000330FB000830FC00773056
:100B2C00FD00FD0B972DFC0B972DFB0B972D8601D4
:100B3C000330FB000830FC007730FD00FD0BA42DCA
:100B4C00FC0BA42DFB0BA42DFF3086000330FB0007
:100B5C000830FC007730FD00FD0BB22DFC0BB22DE4
:100B6C00FB0BB22D86010330FB000830FC00773004
:100B7C00FD00FD0BBF2DFC0BBF2DFB0BBF2D7F30E4
:100B8C0086000330FB000830FC007730FD00FD0BC5
:100B9C00CD2DFC0BCD2DFB0BCD2D86010330FB0099
:100BAC000830FC007730FD00FD0BDA2DFC0BDA2D44
:100BBC00FB0BDA2D3F3086000330FB000830FC00C5
:100BCC007730FD00FD0BE82DFC0BE82DFB0BE82D21
:100BDC0086010330FB000830FC007730FD00FD0B74
:100BEC00F52DFC0BF52DFB0BF52D1F30860003307E
:100BFC00FB000830FC007730FD00FD0B032EFC0BD6
:100C0C00032EFB0B032E86010330FB000830FC0087
:100C1C007730FD00FD0B102EFC0B102EFB0B102E55
:100C2C000F3086000330FB000830FC007730FD00ED
:100C3C00FD0B1E2EFC0B1E2EFB0B1E2E86010330F5
:100C4C00FB000830FC007730FD00FD0B2B2EFC0B5D
:100C5C002B2EFB0B2B2E073086000330FB000830AD
:100C6C00FC007730FD00FD0B392EFC0B392EFB0BF5
:100C7C00392E86010330FB000830FC007730FD0074
:100C8C00FD0B462EFC0B462EFB0B462E033086002E
:100C9C000330FB000830FC007730FD00FD0B542EB8
:100CAC00FC0B542EFB0B542E86010330FB0008303A
:100CBC00FC007730FD00FD0B612EFC0B612EFB0B55
:100CCC00612E013086000330FB000830FC007730C9
:100CDC00FD00FD0B6F2EFC0B6F2EFB0B6F2EFF30F0
:100CEC0086000330FB000830FC007730FD00FD0B64
:100CFC007D2EFC0B7D2EFB0B7D2E86010330FB0025
:100D0C000830FC007730FD00FD0B8A2EFC0B8A2E80
:100D1C00FB0B8A2EFF3086000330FB000830FC00F2
:100D2C007730FD00FD0B982EFC0B982EFB0B982EAC
:100D3C00A20A0319A30AD72CA201A301803023060F
:100D4C00F00080307002031DAD2E05302202031816
:100D5C00792F8601EA30FC00C330FD00FD0BB42E68
:100D6C00FC0BB42E01308600EA30FC00C330FD00D1
:100D7C00FD0BBE2EFC0BBE2E02308600EA30FC00B2
:100D8C00C330FD00FD0BC82EFC0BC82E04308600B2
:100D9C00EA30FC00C330FD00FD0BD22EFC0BD22E32
:100DAC0088308600EA30FC00C330FD00FD0BDC2EE1
:100DBC00FC0BDC2E50308600EA30FC00C330FD000A
:100DCC00FD0BE62EFC0BE62E20308600EA30FC00F4
:100DDC00C330FD00FD0BF02EFC0BF02E50308600C6
:100DEC00EA30FC00C330FD00FD0BFA2EFC0BFA2E92
:100DFC0088308600EA30FC00C330FD00FD0B042F68
:100E0C00FC0B042F44308600EA30FC00C330FD009C
:100E1C00FD0B0E2FFC0B0E2F22308600EA30FC004F
:100E2C00C330FD00FD0B182FFC0B182F1130860062
:100E3C00EA30FC00C330FD00FD0B222FFC0B222FEF
:100E4C000A308600EA30FC00C330FD00FD0B2C2F6D
:100E5C00FC0B2C2F04308600EA30FC00C330FD0064
:100E6C00FD0B362FFC0B362F0A308600EA30FC00C7
:100E7C00C330FD00FD0B402FFC0B402F11308600C2
:100E8C00EA30FC00C330FD00FD0B4A2FFC0B4A2F4F
:100E9C0020308600EA30FC00C330FD00FD0B542FDF
:100EAC00FC0B542F40308600EA30FC00C330FD00B0
:100EBC00FD0B5E2FFC0B5E2F80308600EA30FC00B1
:100ECC00C330FD00FD0B682FFC0B682F8601EA3048
:100EDC00FC00C330FD00FD0B712FFC0B712FA20A1F
:0A0EEC000319A30AA42E1B287A2F75
:02400E004A2F37
:00000001FF
