:020000001628C0
:0E0006008312031323088A00220882000800D8
:1000140003208A110A128000840AA20A0319A30A7F
:08002400F003031D0A28080087
:10002C00831603138601831286017D2880302106F6
:10003C00F00080307002031D25280A3020020318BE
:10004C004028FF308600B630FC00D030FD00FD0BA0
:10005C002D28FC0B2D2800008601B630FC00D0307A
:10006C00FD00FD0B3728FC0B37280000A00A0319F4
:10007C00A10A1C2801308600EA30FC00C330FD00C8
:10008C00FD0B4628FC0B462802308600EA30FC00AB
:10009C00C330FD00FD0B5028FC0B502804308600AB
:1000AC00EA30FC00C330FD00FD0B5A28FC0B5A282B
:1000BC0088308600EA30FC00C330FD00FD0B64285C
:1000CC00FC0B642850308600EA30FC00C330FD0085
:1000DC00FD0B6E28FC0B6E2820308600EA30FC00ED
:1000EC00C330FD00FD0B7828FC0B78281B28503002
:1000FC008600EA30FC00C330FD00FD0B8328FC0BAE
:10010C00832888308600EA30FC00C330FD00FD0BEC
:10011C008D28FC0B8D2844308600EA30FC00C3305F
:10012C00FD00FD0B9728FC0B972822308600EA3047
:10013C00FC00C330FD00FD0BA128FC0BA1281130E5
:10014C008600EA30FC00C330FD00FD0BAB28FC0B35
:10015C00AB280A308600EA30FC00C330FD00FD0BF2
:10016C00B528FC0BB52804308600EA30FC00C330FF
:10017C00FD00FD0BBF28FC0BBF280A308600EA30BF
:10018C00FC00C330FD00FD0BC928FC0BC928113045
:10019C008600EA30FC00C330FD00FD0BD328FC0BBD
:1001AC00D32822308600EA30FC00C330FD00FD0B62
:1001BC00DD28FC0BDD2844308600EA30FC00C3301F
:1001CC00FD00FD0BE728FC0BE72888308600EA30A1
:1001DC00FC00C330FD00FD0BF128FC0BF128503066
:1001EC008600EA30FC00C330FD00FD0BFB28FC0B45
:1001FC00FB2820308600EA30FC00C330FD00FD0BEC
:0A020C000529FC0B05297D280A29AD
:02400E004A2F37
:00000001FF
