:020000001628C0
:0E0006008312031323088A00220882000800D8
:1000140003208A110A128000840AA20A0319A30A7F
:08002400F003031D0A28080087
:10002C0083160313860183128601FF308600B630D7
:10003C00FC00D030FD00FD0B2128FC0B212800001A
:10004C008601B630FC00D030FD00FD0B2B28FC0BDC
:10005C002B280000FF308600B630FC00D030FD00AD
:10006C00FD0B3628FC0B362800008601B630FC0050
:10007C00D030FD00FD0B4028FC0B40280000FF3069
:10008C008600B630FC00D030FD00FD0B4B28FC0B7D
:10009C004B2800008601B630FC00D030FD00FD0B73
:1000AC005528FC0B55280000FF308600B630FC00AC
:1000BC00D030FD00FD0B6028FC0B60280000860191
:1000CC00B630FC00D030FD00FD0B6A28FC0B6A2812
:1000DC000000A001A10180302106F00080307002E8
:1000EC00031D7A28053020020318C02881308600B1
:1000FC000430FB000C30FC003330FD00FD0B842879
:10010C00FC0B8428FB0B8428000000004230860086
:10011C000430FB000C30FC003330FD00FD0B942848
:10012C00FC0B9428FB0B9428000000002430860064
:10013C000430FB000C30FC003330FD00FD0BA42818
:10014C00FC0BA428FB0BA428000000001830860030
:10015C000430FB000C30FC003330FD00FD0BB428E8
:10016C00FC0BB428FB0BB42800000000A00A0319F8
:08017C00A10A71281B28C1280B
:02400E004A2F37
:00000001FF
