:020000001628C0
:0E0006008312031321088A00200882000800DC
:1000140003208A110A128000840AA00A0319A10A83
:08002400F003031D0A28080087
:10002C00831603138601831286018601D030FC00EF
:10003C00C930FD00FD0B2028FC0B2028000000001F
:10004C00FF308600D030FC00C930FD00FD0B2C28A1
:10005C00FC0B2C28000000008601D030FC00C930BD
:10006C00FD00FD0B3728FC0B372800000000FF308B
:10007C008600D030FC00C930FD00FD0B4328FC0B82
:10008C004328000000008601D030FC00C930FD0080
:10009C00FD0B4E28FC0B4E2800000000FF308600A4
:1000AC00D030FC00C930FD00FD0B5A28FC0B5A283F
:1000BC00000000008601D030FC00C930FD00FD0BB3
:1000CC006528FC0B652800000000FF308600D0304E
:1000DC00FC00C930FD00FD0B7128FC0B71280000E1
:1000EC000000AA3086000230FB000430FC00BA305D
:1000FC00FD00FD0B7F28FC0B7F28FB0B7F280000ED
:10010C00553086000230FB000430FC00BA30FD0094
:10011C00FD0B8E28FC0B8E28FB0B8E280000FF306D
:10012C0086000330FB000830FC007730FD00FD0B2F
:10013C009D28FC0B9D28FB0B9D287F3086000330EF
:10014C00FB000830FC007730FD00FD0BAB28FC0BEE
:10015C00AB28FB0BAB28BF3086000330FB0008300C
:10016C00FC007730FD00FD0BB928FC0BB928FB0B0C
:10017C00B9285F3086000330FB000830FC00773074
:10018C00FD00FD0BC728FC0BC728FB0BC728AF30A5
:10019C0086000330FB000830FC007730FD00FD0BBF
:1001AC00D528FC0BD528FB0BD528D730860003307F
:1001BC00FB000830FC007730FD00FD0BE328FC0B46
:1001CC00E328FB0BE328EB3086000330FB00083000
:1001DC00FC007730FD00FD0BF128FC0BF128FB0B2C
:1001EC00F128F53086000330FB000830FC00773036
:1001FC00FD00FD0BFF28FC0BFF28FB0BFF28FA3042
:10020C0086000330FB000830FC007730FD00FD0B4E
:10021C000D29FC0B0D29FB0B0D29FD30860003303D
:10022C00FB000830FC007730FD00FD0B1B29FC0B9C
:10023C001B29FB0B1B29FE3086000330FB0008300A
:10024C00FC007730FD00FD0B2929FC0B2929FB0B49
:10025C0029297F3086000330FB000830FC00773002
:10026C00FD00FD0B3729FC0B3729FB0B3729BF3061
:10027C0086000330FB000830FC007730FD00FD0BDE
:10028C004529FC0B4529FB0B45295F3086000330C3
:10029C00FB000830FC007730FD00FD0B5329FC0BF4
:1002AC005329FB0B5329AF3086000330FB00083079
:1002BC00FC007730FD00FD0B6129FC0B6129FB0B69
:1002CC006129D73086000330FB000830FC00773002
:1002DC00FD00FD0B6F29FC0B6F29FB0B6F29EB301D
:1002EC0086000330FB000830FC007730FD00FD0B6E
:1002FC007D29FC0B7D29FB0B7D29F5308600033015
:10030C00FB000830FC007730FD00FD0B8B29FC0B4B
:10031C008B29FB0B8B29FA3086000330FB0008304D
:10032C00FC007730FD00FD0B9929FC0B9929FB0B88
:10033C009929FD3086000330FB000830FC00773033
:10034C00FD00FD0BA729FC0BA729FB0BA729FE30F1
:10035C0086000330FB000830FC007730FD00FD0BFD
:10036C00B529FC0BB529FB0BB529FF3086000330F2
:10037C00FB000830FC007730FD00FD0BC329FC0BA3
:10038C00C329FB0BC329803086000330FB000830E7
:10039C00FC007730FD00FD0BD129FC0BD129FB0BA8
:1003AC00D129C03086000330FB000830FC007730C8
:1003BC00FD00FD0BDF29FC0BDF29FB0BDF29603077
:1003CC0086000330FB000830FC007730FD00FD0B8D
:1003DC00ED29FC0BED29FB0BED29303086000330A9
:1003EC00FB000830FC007730FD00FD0BFB29FC0BFB
:1003FC00FB29FB0BFB29183086000330FB0008306F
:10040C00FC007730FD00FD0B092AFC0B092AFB0BC5
:10041C00092A0C3086000330FB000830FC007730D2
:10042C00FD00FD0B172AFC0B172AFB0B172A0630B5
:10043C0086000330FB000830FC007730FD00FD0B1C
:10044C00252AFC0B252AFB0B252A033086000330BA
:10045C00FB000830FC007730FD00FD0B332AFC0B51
:10046C00332AFB0B332A063086000330FB0008309E
:10047C00FC007730FD00FD0B412AFC0B412AFB0BE5
:10048C00412A0C3086000330FB000830FC0077302A
:10049C00FD00FD0B4F2AFC0B4F2AFB0B4F2A18308B
:1004AC0086000330FB000830FC007730FD00FD0BAC
:1004BC005D2AFC0B5D2AFB0B5D2A30308600033075
:1004CC00FB000830FC007730FD00FD0B6B2AFC0BA9
:1004DC006B2AFB0B6B2A603086000330FB00083064
:1004EC00FC007730FD00FD0B792AFC0B792AFB0B05
:1004FC00792AC03086000330FB000830FC007730CE
:10050C00FD00FD0B872AFC0B872AFB0B872A60302A
:10051C0086000330FB000830FC007730FD00FD0B3B
:10052C00952AFC0B952AFB0B952A3030860003305C
:10053C00FB000830FC007730FD00FD0BA32AFC0B00
:10054C00A32AFB0BA32A183086000330FB000830CB
:10055C00FC007730FD00FD0BB12AFC0BB12AFB0B24
:10056C00B12A0C3086000330FB000830FC007730D9
:10057C00FD00FD0BBF2AFC0BBF2AFB0BBF2A06306C
:10058C0086000330FB000830FC007730FD00FD0BCB
:10059C00CD2AFC0BCD2AFB0BCD2A03308600033071
:1005AC00FB000830FC007730FD00FD0BDB2AFC0B58
:1005BC00DB2AFB0BDB2A013086000330FB00083002
:1005CC00FC007730FD00FD0BE92AFC0BE92AFB0B44
:1005DC00E92A86010330FB000830FC007730FD006F
:1005EC00FD0BF62AFC0BF62AFB0BF62A1B28FD2A20
:02400E004A2F37
:00000001FF
