:020000001628C0
:0E0006008312031321088A00200882000800DC
:1000140003208A110A128000840AA00A0319A10A83
:08002400F003031D0A28080087
:10002C008316031386018312860186010230FB00BE
:10003C000430FC00BA30FD00FD0B2228FC0B2228FA
:10004C00FB0B22280000FF3086000230FB0004303E
:10005C00FC00BA30FD00FD0B3128FC0B3128FB0BEA
:10006C003128000086010230FB000430FC00BA305D
:10007C00FD00FD0B3F28FC0B3F28FB0B3F2800002D
:10008C0080308600B630FC00D030FD00FD0B4C28D3
:10009C00FC0B4C280000403086000230FB00043082
:1000AC00FC00BA30FD00FD0B5928FC0B5928FB0B4A
:1000BC0059280000203086000230FB006C30FC0018
:1000CC009F30FD00FD0B6828FC0B6828FB0B682893
:1000DC0000000000103086000230FB00D430FC0021
:1000EC008530FD00FD0B7828FC0B7828FB0B78285D
:1000FC00083086000330FB003C30FC006930FD000A
:10010C00FD0B8628FC0B8628FB0B862800000000C4
:10011C00043086000330FB008A30FC005530FD00B3
:10012C00FD0B9628FC0B9628FB0B96280000000074
:10013C00023086000330FB00D830FC004130FD005B
:10014C00FD0BA628FC0BA628FB0BA6280000000024
:10015C0001308600B630FC00D030FD00FD0BB42819
:10016C00FC0BB4280000023086000230FB00043087
:10017C00FC00BA30FD00FD0BC128FC0BC128FB0BA9
:10018C00C1280000043086000230FB006C30FC00FB
:10019C009F30FD00FD0BD028FC0BD028FB0BD0288A
:1001AC0000000000083086000230FB00D430FC0058
:1001BC008530FD00FD0BE028FC0BE028FB0BE02854
:1001CC00103086000330FB003C30FC006930FD0031
:1001DC00FD0BEE28FC0BEE28FB0BEE2800000000BC
:1001EC00203086000330FB008A30FC005530FD00C7
:1001FC00FD0BFE28FC0BFE28FB0BFE28000000006C
:10020C00403086000330FB00D830FC004130FD004C
:10021C00FD0B0E29FC0B0E29FB0B0E290000000018
:10022C00803086000330FB00D830FC004130FD00EC
:10023C00FD0B1E29FC0B1E29FB0B1E2900000000C8
:10024C00403086000430FB004030FC002630FD00BE
:10025C00FD0B2E29FC0B2E29FB0B2E290000203028
:10026C0086000430FB007430FC001930FD00FD0BDF
:10027C003D29FC0B3D29FB0B3D2910308600043039
:10028C00FB00C230FC000530FD00FD0B4B29FC0BC4
:10029C004B29FB0B4B29083086000530FB000F3037
:1002AC00FC00F130FD00FD0B5929FC0B5929FB0B0F
:1002BC005929043086000530FB007730FC00D6301D
:1002CC00FD00FD0B6729FC0B6729FB0B6729000060
:1002DC00023086000530FB00DF30FC00BB30FD0037
:1002EC00FD0B7629FC0B7629FB0B76290000000010
:1002FC00013086000630FB004730FC00A030FD00CA
:10030C00FD0B8629FC0B8629FB0B8629000002308D
:10031C0086000630FB007B30FC009330FD00FD0BAB
:10032C009529FC0B9529FB0B95290430860006308A
:10033C00FB00E330FC007830FD00FD0BA329FC0B27
:10034C00A329FB0BA3290000083086000730FB0013
:10035C004B30FC005D30FD00FD0BB229FC0BB229CB
:10036C00FB0BB229103086000730FB007F30FC00FD
:10037C004F30FD00FD0BC029FC0BC029FB0BC02925
:10038C0000000000203086000730FB00E730FC0046
:10039C003530FD00FD0BD029FC0BD029FB0BD029EF
:1003AC00403086000830FB004F30FC001930FD0057
:1003BC00FD0BDE29FC0BDE29FB0BDE290000000007
:1003CC00803086000830FB008330FC000C30FD00D0
:1003DC00FD0BEE29FC0BEE29FB0BEE2900001B2874
:0203EC00F629F0
:02400E004A2F37
:00000001FF
